{
    "contractName": "ZodiakNFT",
    "abi": [
        {
            "inputs": [
                {
                    "internalType": "string",
                    "name": "_uri",
                    "type": "string"
                },
                {
                    "internalType": "address",
                    "name": "_theMighty",
                    "type": "address"
                }
            ],
            "stateMutability": "nonpayable",
            "type": "constructor"
        },
        {
            "inputs": [
                {
                    "internalType": "address",
                    "name": "sender",
                    "type": "address"
                },
                {
                    "internalType": "uint256",
                    "name": "balance",
                    "type": "uint256"
                },
                {
                    "internalType": "uint256",
                    "name": "needed",
                    "type": "uint256"
                },
                {
                    "internalType": "uint256",
                    "name": "tokenId",
                    "type": "uint256"
                }
            ],
            "name": "ERC1155InsufficientBalance",
            "type": "error"
        },
        {
            "inputs": [
                {
                    "internalType": "address",
                    "name": "approver",
                    "type": "address"
                }
            ],
            "name": "ERC1155InvalidApprover",
            "type": "error"
        },
        {
            "inputs": [
                {
                    "internalType": "uint256",
                    "name": "idsLength",
                    "type": "uint256"
                },
                {
                    "internalType": "uint256",
                    "name": "valuesLength",
                    "type": "uint256"
                }
            ],
            "name": "ERC1155InvalidArrayLength",
            "type": "error"
        },
        {
            "inputs": [
                {
                    "internalType": "address",
                    "name": "operator",
                    "type": "address"
                }
            ],
            "name": "ERC1155InvalidOperator",
            "type": "error"
        },
        {
            "inputs": [
                {
                    "internalType": "address",
                    "name": "receiver",
                    "type": "address"
                }
            ],
            "name": "ERC1155InvalidReceiver",
            "type": "error"
        },
        {
            "inputs": [
                {
                    "internalType": "address",
                    "name": "sender",
                    "type": "address"
                }
            ],
            "name": "ERC1155InvalidSender",
            "type": "error"
        },
        {
            "inputs": [
                {
                    "internalType": "address",
                    "name": "operator",
                    "type": "address"
                },
                {
                    "internalType": "address",
                    "name": "owner",
                    "type": "address"
                }
            ],
            "name": "ERC1155MissingApprovalForAll",
            "type": "error"
        },
        {
            "anonymous": false,
            "inputs": [
                {
                    "indexed": true,
                    "internalType": "address",
                    "name": "account",
                    "type": "address"
                },
                {
                    "indexed": true,
                    "internalType": "address",
                    "name": "operator",
                    "type": "address"
                },
                {
                    "indexed": false,
                    "internalType": "bool",
                    "name": "approved",
                    "type": "bool"
                }
            ],
            "name": "ApprovalForAll",
            "type": "event"
        },
        {
            "anonymous": false,
            "inputs": [
                {
                    "indexed": true,
                    "internalType": "address",
                    "name": "operator",
                    "type": "address"
                },
                {
                    "indexed": true,
                    "internalType": "address",
                    "name": "from",
                    "type": "address"
                },
                {
                    "indexed": true,
                    "internalType": "address",
                    "name": "to",
                    "type": "address"
                },
                {
                    "indexed": false,
                    "internalType": "uint256[]",
                    "name": "ids",
                    "type": "uint256[]"
                },
                {
                    "indexed": false,
                    "internalType": "uint256[]",
                    "name": "values",
                    "type": "uint256[]"
                }
            ],
            "name": "TransferBatch",
            "type": "event"
        },
        {
            "anonymous": false,
            "inputs": [
                {
                    "indexed": true,
                    "internalType": "address",
                    "name": "operator",
                    "type": "address"
                },
                {
                    "indexed": true,
                    "internalType": "address",
                    "name": "from",
                    "type": "address"
                },
                {
                    "indexed": true,
                    "internalType": "address",
                    "name": "to",
                    "type": "address"
                },
                {
                    "indexed": false,
                    "internalType": "uint256",
                    "name": "id",
                    "type": "uint256"
                },
                {
                    "indexed": false,
                    "internalType": "uint256",
                    "name": "value",
                    "type": "uint256"
                }
            ],
            "name": "TransferSingle",
            "type": "event"
        },
        {
            "anonymous": false,
            "inputs": [
                {
                    "indexed": false,
                    "internalType": "string",
                    "name": "value",
                    "type": "string"
                },
                {
                    "indexed": true,
                    "internalType": "uint256",
                    "name": "id",
                    "type": "uint256"
                }
            ],
            "name": "URI",
            "type": "event"
        },
        {
            "inputs": [
                {
                    "internalType": "address",
                    "name": "account",
                    "type": "address"
                },
                {
                    "internalType": "uint256",
                    "name": "id",
                    "type": "uint256"
                }
            ],
            "name": "balanceOf",
            "outputs": [
                {
                    "internalType": "uint256",
                    "name": "",
                    "type": "uint256"
                }
            ],
            "stateMutability": "view",
            "type": "function"
        },
        {
            "inputs": [
                {
                    "internalType": "address[]",
                    "name": "accounts",
                    "type": "address[]"
                },
                {
                    "internalType": "uint256[]",
                    "name": "ids",
                    "type": "uint256[]"
                }
            ],
            "name": "balanceOfBatch",
            "outputs": [
                {
                    "internalType": "uint256[]",
                    "name": "",
                    "type": "uint256[]"
                }
            ],
            "stateMutability": "view",
            "type": "function"
        },
        {
            "inputs": [
                {
                    "internalType": "uint256",
                    "name": "_idFrom",
                    "type": "uint256"
                },
                {
                    "internalType": "uint256",
                    "name": "_idTo",
                    "type": "uint256"
                },
                {
                    "internalType": "address",
                    "name": "_owner",
                    "type": "address"
                }
            ],
            "name": "cosmicMutation",
            "outputs": [],
            "stateMutability": "nonpayable",
            "type": "function"
        },
        {
            "inputs": [
                {
                    "internalType": "uint256",
                    "name": "_id",
                    "type": "uint256"
                },
                {
                    "internalType": "uint16",
                    "name": "_strength",
                    "type": "uint16"
                },
                {
                    "internalType": "uint16",
                    "name": "_agility",
                    "type": "uint16"
                },
                {
                    "internalType": "uint16",
                    "name": "_intelligence",
                    "type": "uint16"
                },
                {
                    "internalType": "uint16",
                    "name": "_vitality",
                    "type": "uint16"
                },
                {
                    "internalType": "uint16",
                    "name": "_luck",
                    "type": "uint16"
                }
            ],
            "name": "cosmicReshape",
            "outputs": [],
            "stateMutability": "nonpayable",
            "type": "function"
        },
        {
            "inputs": [
                {
                    "internalType": "string[]",
                    "name": "_uris",
                    "type": "string[]"
                }
            ],
            "name": "initURI",
            "outputs": [],
            "stateMutability": "nonpayable",
            "type": "function"
        },
        {
            "inputs": [
                {
                    "internalType": "address",
                    "name": "account",
                    "type": "address"
                },
                {
                    "internalType": "address",
                    "name": "operator",
                    "type": "address"
                }
            ],
            "name": "isApprovedForAll",
            "outputs": [
                {
                    "internalType": "bool",
                    "name": "",
                    "type": "bool"
                }
            ],
            "stateMutability": "view",
            "type": "function"
        },
        {
            "inputs": [
                {
                    "internalType": "address",
                    "name": "from",
                    "type": "address"
                },
                {
                    "internalType": "address",
                    "name": "to",
                    "type": "address"
                },
                {
                    "internalType": "uint256[]",
                    "name": "ids",
                    "type": "uint256[]"
                },
                {
                    "internalType": "uint256[]",
                    "name": "values",
                    "type": "uint256[]"
                },
                {
                    "internalType": "bytes",
                    "name": "data",
                    "type": "bytes"
                }
            ],
            "name": "safeBatchTransferFrom",
            "outputs": [],
            "stateMutability": "nonpayable",
            "type": "function"
        },
        {
            "inputs": [
                {
                    "internalType": "address",
                    "name": "from",
                    "type": "address"
                },
                {
                    "internalType": "address",
                    "name": "to",
                    "type": "address"
                },
                {
                    "internalType": "uint256",
                    "name": "id",
                    "type": "uint256"
                },
                {
                    "internalType": "uint256",
                    "name": "value",
                    "type": "uint256"
                },
                {
                    "internalType": "bytes",
                    "name": "data",
                    "type": "bytes"
                }
            ],
            "name": "safeTransferFrom",
            "outputs": [],
            "stateMutability": "nonpayable",
            "type": "function"
        },
        {
            "inputs": [
                {
                    "internalType": "address",
                    "name": "operator",
                    "type": "address"
                },
                {
                    "internalType": "bool",
                    "name": "approved",
                    "type": "bool"
                }
            ],
            "name": "setApprovalForAll",
            "outputs": [],
            "stateMutability": "nonpayable",
            "type": "function"
        },
        {
            "inputs": [
                {
                    "internalType": "uint256",
                    "name": "_maxCollections",
                    "type": "uint256"
                }
            ],
            "name": "setMaxCollections",
            "outputs": [],
            "stateMutability": "nonpayable",
            "type": "function"
        },
        {
            "inputs": [
                {
                    "internalType": "uint256",
                    "name": "_price",
                    "type": "uint256"
                }
            ],
            "name": "setPrice",
            "outputs": [],
            "stateMutability": "nonpayable",
            "type": "function"
        },
        {
            "inputs": [
                {
                    "internalType": "uint256",
                    "name": "_amount",
                    "type": "uint256"
                }
            ],
            "name": "summonLuck",
            "outputs": [],
            "stateMutability": "payable",
            "type": "function"
        },
        {
            "inputs": [
                {
                    "internalType": "bytes4",
                    "name": "interfaceId",
                    "type": "bytes4"
                }
            ],
            "name": "supportsInterface",
            "outputs": [
                {
                    "internalType": "bool",
                    "name": "",
                    "type": "bool"
                }
            ],
            "stateMutability": "view",
            "type": "function"
        },
        {
            "inputs": [
                {
                    "internalType": "uint256",
                    "name": "tokenId",
                    "type": "uint256"
                }
            ],
            "name": "uri",
            "outputs": [
                {
                    "internalType": "string",
                    "name": "",
                    "type": "string"
                }
            ],
            "stateMutability": "view",
            "type": "function"
        },
        {
            "inputs": [
                {
                    "internalType": "uint256",
                    "name": "tokenId",
                    "type": "uint256"
                },
                {
                    "internalType": "address",
                    "name": "_from",
                    "type": "address"
                },
                {
                    "internalType": "uint256",
                    "name": "_amount",
                    "type": "uint256"
                }
            ],
            "name": "voidRelease",
            "outputs": [],
            "stateMutability": "nonpayable",
            "type": "function"
        },
        {
            "inputs": [
                {
                    "internalType": "uint256",
                    "name": "",
                    "type": "uint256"
                }
            ],
            "name": "zodiakBonuses",
            "outputs": [
                {
                    "internalType": "uint16",
                    "name": "strength",
                    "type": "uint16"
                },
                {
                    "internalType": "uint16",
                    "name": "agility",
                    "type": "uint16"
                },
                {
                    "internalType": "uint16",
                    "name": "intelligence",
                    "type": "uint16"
                },
                {
                    "internalType": "uint16",
                    "name": "vitality",
                    "type": "uint16"
                },
                {
                    "internalType": "uint16",
                    "name": "luck",
                    "type": "uint16"
                }
            ],
            "stateMutability": "view",
            "type": "function"
        }
    ],
    "bytecode": "60a06040525f60809081526003906100179082610130565b506013600755600c600855662386f26fc10000600955348015610038575f80fd5b50604051611e2b380380611e2b8339810160408190526100579161020a565b8161006181610088565b50600580546001600160a01b0319166001600160a01b0392909216919091179055506102c5565b60026100948282610130565b5050565b634e487b7160e01b5f52604160045260245ffd5b600181811c908216806100c057607f821691505b6020821081036100de57634e487b7160e01b5f52602260045260245ffd5b50919050565b601f82111561012b57805f5260205f20601f840160051c810160208510156101095750805b601f840160051c820191505b81811015610128575f8155600101610115565b50505b505050565b81516001600160401b0381111561014957610149610098565b61015d8161015784546100ac565b846100e4565b602080601f831160018114610190575f84156101795750858301515b5f19600386901b1c1916600185901b1785556101e7565b5f85815260208120601f198616915b828110156101be5788860151825594840194600190910190840161019f565b50858210156101db57878501515f19600388901b60f8161c191681555b505060018460011b0185555b505050505050565b80516001600160a01b0381168114610205575f80fd5b919050565b5f806040838503121561021b575f80fd5b82516001600160401b0380821115610231575f80fd5b818501915085601f830112610244575f80fd5b81518181111561025657610256610098565b604051601f8201601f19908116603f0116810190838211818310171561027e5761027e610098565b81604052828152886020848701011115610296575f80fd5b8260208601602083015e5f6020848301015280965050505050506102bc602084016101ef565b90509250929050565b611b59806102d25f395ff3fe6080604052600436106100ee575f3560e01c80634e1273f411610087578063a22cb46511610057578063a22cb4651461030b578063e985e9c51461032a578063eb46eb2314610349578063f242432a14610368575f80fd5b80634e1273f41461028e578063571ecec9146102ba5780635fd6bfbd146102d957806391b7f5ed146102ec575f80fd5b80631269555f116100c25780631269555f1461021057806317a03ee9146102315780632eb2c2d6146102505780633845b0171461026f575f80fd5b8062fdd58e146100f257806301ffc9a7146101245780630d0ee140146101535780630e89341c146101e4575b5f80fd5b3480156100fd575f80fd5b5061011161010c3660046111e2565b610387565b6040519081526020015b60405180910390f35b34801561012f575f80fd5b5061014361013e36600461121f565b6103ae565b604051901515815260200161011b565b34801561015e575f80fd5b506101af61016d36600461123a565b600a6020525f908152604090205461ffff80821691620100008104821691640100000000820481169166010000000000008104821691600160401b9091041685565b6040805161ffff968716815294861660208601529285169284019290925283166060830152909116608082015260a00161011b565b3480156101ef575f80fd5b506102036101fe36600461123a565b6103fd565b60405161011b919061127f565b34801561021b575f80fd5b5061022f61022a36600461123a565b6104d9565b005b34801561023c575f80fd5b5061022f61024b3660046112a2565b610511565b34801561025b575f80fd5b5061022f61026a366004611452565b6105fe565b34801561027a575f80fd5b5061022f6102893660046114f5565b610665565b348015610299575f80fd5b506102ad6102a83660046115b2565b6106c9565b60405161011b91906116a6565b3480156102c5575f80fd5b5061022f6102d43660046116b8565b610794565b61022f6102e736600461123a565b610886565b3480156102f7575f80fd5b5061022f61030636600461123a565b610958565b348015610316575f80fd5b5061022f6103253660046116ea565b610987565b348015610335575f80fd5b50610143610344366004611723565b610992565b348015610354575f80fd5b5061022f610363366004611754565b6109bf565b348015610373575f80fd5b5061022f610382366004611786565b6109ca565b5f818152602081815260408083206001600160a01b03861684529091529020545b92915050565b5f6001600160e01b03198216636cdb3d1360e11b14806103de57506001600160e01b031982166303a24d0760e21b145b806103a857506301ffc9a760e01b6001600160e01b03198316146103a8565b5f8181526004602052604081208054606092919061041a906117e6565b80601f0160208091040260200160405190810160405280929190818152602001828054610446906117e6565b80156104915780601f1061046857610100808354040283529160200191610491565b820191905f5260205f20905b81548152906001019060200180831161047457829003601f168201915b505050505090505f8151116104ae576104a983610a29565b6104d2565b6003816040516020016104c292919061181e565b6040516020818303038152906040525b9392505050565b6005546001600160a01b0316331461050c5760405162461bcd60e51b81526004016105039061189f565b60405180910390fd5b600755565b6005546001600160a01b0316331461053b5760405162461bcd60e51b81526004016105039061189f565b6040805160a08101825261ffff9687168152948616602080870191825294871686830190815293871660608701908152928716608087019081525f988952600a909552962093518454965192519151935190861663ffffffff199097169690961762010000928616929092029190911767ffffffff0000000019166401000000009185169190910267ffff0000000000001916176601000000000000918416919091021769ffff00000000000000001916600160401b9390921692909202179055565b336001600160a01b038616811480159061061f575061061d8682610992565b155b156106505760405163711bec9160e11b81526001600160a01b03808316600483015287166024820152604401610503565b61065d8686868686610abb565b505050505050565b6005546001600160a01b0316331461068f5760405162461bcd60e51b81526004016105039061189f565b5f5b81518110156106c5576106bd818383815181106106b0576106b06118e8565b6020026020010151610b20565b600101610691565b5050565b606081518351146106fa5781518351604051635b05999160e01b815260048101929092526024820152604401610503565b5f835167ffffffffffffffff8111156107155761071561130b565b60405190808252806020026020018201604052801561073e578160200160208202803683370190505b5090505f5b845181101561078c5760208082028601015161076790602080840287010151610387565b828281518110610779576107796118e8565b6020908102919091010152600101610743565b509392505050565b6005546001600160a01b031633146107be5760405162461bcd60e51b81526004016105039061189f565b60016107ca8285610387565b101561080f5760405162461bcd60e51b8152602060048201526014602482015273496e73756666696369656e742062616c616e636560601b6044820152606401610503565b60075483108015610821575060075482105b61085a5760405162461bcd60e51b815260206004820152600a602482015269125b9d985b1a59081a5960b21b6044820152606401610503565b61086681846001610b7c565b6108818183600160405180602001604052805f815250610be2565b505050565b806009546108949190611910565b3410156108d65760405162461bcd60e51b815260206004820152601060248201526f125b98dbdc9c9958dd08185b5bdd5b9d60821b6044820152606401610503565b600a816108e3335f610387565b6108ed9190611927565b111561093b5760405162461bcd60e51b815260206004820152601b60248201527f596f752063616e206f6e6c79206d696e7420313020746f6b656e7300000000006044820152606401610503565b610955335f8360405180602001604052805f815250610be2565b50565b6005546001600160a01b031633146109825760405162461bcd60e51b81526004016105039061189f565b600955565b6106c5338383610c3d565b6001600160a01b039182165f90815260016020908152604080832093909416825291909152205460ff1690565b610881828483610b7c565b336001600160a01b03861681148015906109eb57506109e98682610992565b155b15610a1c5760405163711bec9160e11b81526001600160a01b03808316600483015287166024820152604401610503565b61065d8686868686610cd1565b606060028054610a38906117e6565b80601f0160208091040260200160405190810160405280929190818152602001828054610a64906117e6565b8015610aaf5780601f10610a8657610100808354040283529160200191610aaf565b820191905f5260205f20905b815481529060010190602001808311610a9257829003601f168201915b50505050509050919050565b6001600160a01b038416610ae457604051632bfa23e760e11b81525f6004820152602401610503565b6001600160a01b038516610b0c57604051626a0d4560e21b81525f6004820152602401610503565b610b198585858585610d5d565b5050505050565b5f828152600460205260409020610b37828261197e565b50817f6bb7ff708619ba0610cba295a58592e0451dee2622938c8755667688daf3529b610b63846103fd565b604051610b70919061127f565b60405180910390a25050565b6001600160a01b038316610ba457604051626a0d4560e21b81525f6004820152602401610503565b604080516001808252602082018590528183019081526060820184905260a082019092525f60808201818152919291610b1991879185908590610d5d565b6001600160a01b038416610c0b57604051632bfa23e760e11b81525f6004820152602401610503565b6040805160018082526020820186905281830190815260608201859052608082019092529061065d5f87848487610d5d565b6001600160a01b038216610c655760405162ced3e160e81b81525f6004820152602401610503565b6001600160a01b038381165f81815260016020908152604080832094871680845294825291829020805460ff191686151590811790915591519182527f17307eab39ab6107e8899845ad3d59bd9653f200f220920489ca2b5937696c31910160405180910390a3505050565b6001600160a01b038416610cfa57604051632bfa23e760e11b81525f6004820152602401610503565b6001600160a01b038516610d2257604051626a0d4560e21b81525f6004820152602401610503565b60408051600180825260208201869052818301908152606082018590526080820190925290610d548787848487610d5d565b50505050505050565b610d6985858585610db0565b6001600160a01b03841615610b195782513390600103610da25760208481015190840151610d9b838989858589610fbf565b505061065d565b61065d8187878787876110e0565b8051825114610ddf5781518151604051635b05999160e01b815260048101929092526024820152604401610503565b335f5b8351811015610ee1576020818102858101820151908501909101516001600160a01b03881615610e93575f828152602081815260408083206001600160a01b038c16845290915290205481811015610e6d576040516303dee4c560e01b81526001600160a01b038a166004820152602481018290526044810183905260648101849052608401610503565b5f838152602081815260408083206001600160a01b038d16845290915290209082900390555b6001600160a01b03871615610ed7575f828152602081815260408083206001600160a01b038b16845290915281208054839290610ed1908490611927565b90915550505b5050600101610de2565b508251600103610f615760208301515f906020840151909150856001600160a01b0316876001600160a01b0316846001600160a01b03167fc3d58168c5ae7397731d063d5bbf3d657854427343f4c083240f7aacaa2d0f628585604051610f52929190918252602082015260400190565b60405180910390a45050610b19565b836001600160a01b0316856001600160a01b0316826001600160a01b03167f4a39dc06d4c0dbc64b70af90fd698a233a518aa5d07e595d983b8c0526c8f7fb8686604051610fb0929190611a3a565b60405180910390a45050505050565b6001600160a01b0384163b1561065d5760405163f23a6e6160e01b81526001600160a01b0385169063f23a6e61906110039089908990889088908890600401611a67565b6020604051808303815f875af192505050801561103d575060408051601f3d908101601f1916820190925261103a91810190611aab565b60015b6110a4573d80801561106a576040519150601f19603f3d011682016040523d82523d5f602084013e61106f565b606091505b5080515f0361109c57604051632bfa23e760e11b81526001600160a01b0386166004820152602401610503565b805181602001fd5b6001600160e01b0319811663f23a6e6160e01b14610d5457604051632bfa23e760e11b81526001600160a01b0386166004820152602401610503565b6001600160a01b0384163b1561065d5760405163bc197c8160e01b81526001600160a01b0385169063bc197c81906111249089908990889088908890600401611ac6565b6020604051808303815f875af192505050801561115e575060408051601f3d908101601f1916820190925261115b91810190611aab565b60015b61118b573d80801561106a576040519150601f19603f3d011682016040523d82523d5f602084013e61106f565b6001600160e01b0319811663bc197c8160e01b14610d5457604051632bfa23e760e11b81526001600160a01b0386166004820152602401610503565b80356001600160a01b03811681146111dd575f80fd5b919050565b5f80604083850312156111f3575f80fd5b6111fc836111c7565b946020939093013593505050565b6001600160e01b031981168114610955575f80fd5b5f6020828403121561122f575f80fd5b81356104d28161120a565b5f6020828403121561124a575f80fd5b5035919050565b5f81518084528060208401602086015e5f602082860101526020601f19601f83011685010191505092915050565b602081525f6104d26020830184611251565b803561ffff811681146111dd575f80fd5b5f805f805f8060c087890312156112b7575f80fd5b863595506112c760208801611291565b94506112d560408801611291565b93506112e360608801611291565b92506112f160808801611291565b91506112ff60a08801611291565b90509295509295509295565b634e487b7160e01b5f52604160045260245ffd5b604051601f8201601f1916810167ffffffffffffffff811182821017156113485761134861130b565b604052919050565b5f67ffffffffffffffff8211156113695761136961130b565b5060051b60200190565b5f82601f830112611382575f80fd5b8135602061139761139283611350565b61131f565b8083825260208201915060208460051b8701019350868411156113b8575f80fd5b602086015b848110156113d457803583529183019183016113bd565b509695505050505050565b5f67ffffffffffffffff8311156113f8576113f861130b565b61140b601f8401601f191660200161131f565b905082815283838301111561141e575f80fd5b828260208301375f602084830101529392505050565b5f82601f830112611443575f80fd5b6104d2838335602085016113df565b5f805f805f60a08688031215611466575f80fd5b61146f866111c7565b945061147d602087016111c7565b9350604086013567ffffffffffffffff80821115611499575f80fd5b6114a589838a01611373565b945060608801359150808211156114ba575f80fd5b6114c689838a01611373565b935060808801359150808211156114db575f80fd5b506114e888828901611434565b9150509295509295909350565b5f6020808385031215611506575f80fd5b823567ffffffffffffffff8082111561151d575f80fd5b818501915085601f830112611530575f80fd5b813561153e61139282611350565b81815260059190911b8301840190848101908883111561155c575f80fd5b8585015b838110156115a557803585811115611576575f80fd5b8601603f81018b13611586575f80fd5b6115978b89830135604084016113df565b845250918601918601611560565b5098975050505050505050565b5f80604083850312156115c3575f80fd5b823567ffffffffffffffff808211156115da575f80fd5b818501915085601f8301126115ed575f80fd5b813560206115fd61139283611350565b82815260059290921b8401810191818101908984111561161b575f80fd5b948201945b8386101561164057611631866111c7565b82529482019490820190611620565b96505086013592505080821115611655575f80fd5b5061166285828601611373565b9150509250929050565b5f815180845260208085019450602084015f5b8381101561169b5781518752958201959082019060010161167f565b509495945050505050565b602081525f6104d2602083018461166c565b5f805f606084860312156116ca575f80fd5b83359250602084013591506116e1604085016111c7565b90509250925092565b5f80604083850312156116fb575f80fd5b611704836111c7565b915060208301358015158114611718575f80fd5b809150509250929050565b5f8060408385031215611734575f80fd5b61173d836111c7565b915061174b602084016111c7565b90509250929050565b5f805f60608486031215611766575f80fd5b83359250611776602085016111c7565b9150604084013590509250925092565b5f805f805f60a0868803121561179a575f80fd5b6117a3866111c7565b94506117b1602087016111c7565b93506040860135925060608601359150608086013567ffffffffffffffff8111156117da575f80fd5b6114e888828901611434565b600181811c908216806117fa57607f821691505b60208210810361181857634e487b7160e01b5f52602260045260245ffd5b50919050565b5f80845461182b816117e6565b60018281168015611843576001811461185857611884565b60ff1984168752821515830287019450611884565b885f526020805f205f5b8581101561187b5781548a820152908401908201611862565b50505082870194505b5050505083518060208601835e5f9101908152949350505050565b60208082526029908201527f4f6e6c7920436f736d696320706f776572732063616e2063616c6c207468697360408201526810333ab731ba34b7b760b91b606082015260800190565b634e487b7160e01b5f52603260045260245ffd5b634e487b7160e01b5f52601160045260245ffd5b80820281158282048414176103a8576103a86118fc565b808201808211156103a8576103a86118fc565b601f82111561088157805f5260205f20601f840160051c8101602085101561195f5750805b601f840160051c820191505b81811015610b19575f815560010161196b565b815167ffffffffffffffff8111156119985761199861130b565b6119ac816119a684546117e6565b8461193a565b602080601f8311600181146119df575f84156119c85750858301515b5f19600386901b1c1916600185901b17855561065d565b5f85815260208120601f198616915b82811015611a0d578886015182559484019460019091019084016119ee565b5085821015611a2a57878501515f19600388901b60f8161c191681555b5050505050600190811b01905550565b604081525f611a4c604083018561166c565b8281036020840152611a5e818561166c565b95945050505050565b6001600160a01b03868116825285166020820152604081018490526060810183905260a0608082018190525f90611aa090830184611251565b979650505050505050565b5f60208284031215611abb575f80fd5b81516104d28161120a565b6001600160a01b0386811682528516602082015260a0604082018190525f90611af19083018661166c565b8281036060840152611b03818661166c565b90508281036080840152611b178185611251565b9897505050505050505056fea26469706673582212204dd5f98d84df80a3c408a8b56a13ffbc58317dc00bc482edab1ddbff65999ed464736f6c63430008190033",
    "sourcePath": "/home/torof/desk/portfolio/zodiak333/src/ZodiakNFT.sol",
    "compiler": {
        "name": "solc",
        "version": "0.8.25+commit.b61c2a91"
    },
    "functionHashes": {
        "balanceOf(address,uint256)": "00fdd58e",
        "balanceOfBatch(address[],uint256[])": "4e1273f4",
        "cosmicMutation(uint256,uint256,address)": "571ecec9",
        "cosmicReshape(uint256,uint16,uint16,uint16,uint16,uint16)": "17a03ee9",
        "initURI(string[])": "3845b017",
        "isApprovedForAll(address,address)": "e985e9c5",
        "safeBatchTransferFrom(address,address,uint256[],uint256[],bytes)": "2eb2c2d6",
        "safeTransferFrom(address,address,uint256,uint256,bytes)": "f242432a",
        "setApprovalForAll(address,bool)": "a22cb465",
        "setMaxCollections(uint256)": "1269555f",
        "setPrice(uint256)": "91b7f5ed",
        "summonLuck(uint256)": "5fd6bfbd",
        "supportsInterface(bytes4)": "01ffc9a7",
        "uri(uint256)": "0e89341c",
        "voidRelease(uint256,address,uint256)": "eb46eb23",
        "zodiakBonuses(uint256)": "0d0ee140"
    },
    "gasEstimates": {
        "creation": {
            "codeDepositCost": "1400200",
            "executionCost": "infinite",
            "totalCost": "infinite"
        },
        "external": {
            "balanceOf(address,uint256)": "2657",
            "balanceOfBatch(address[],uint256[])": "infinite",
            "cosmicMutation(uint256,uint256,address)": "infinite",
            "cosmicReshape(uint256,uint16,uint16,uint16,uint16,uint16)": "infinite",
            "initURI(string[])": "infinite",
            "isApprovedForAll(address,address)": "infinite",
            "safeBatchTransferFrom(address,address,uint256[],uint256[],bytes)": "infinite",
            "safeTransferFrom(address,address,uint256,uint256,bytes)": "infinite",
            "setApprovalForAll(address,bool)": "26678",
            "setMaxCollections(uint256)": "24485",
            "setPrice(uint256)": "24551",
            "summonLuck(uint256)": "infinite",
            "supportsInterface(bytes4)": "575",
            "uri(uint256)": "infinite",
            "voidRelease(uint256,address,uint256)": "infinite",
            "zodiakBonuses(uint256)": "2715"
        }
    }
}