{
    "contractName": "ZodiakLottery",
    "abi": [
        {
            "inputs": [
                {
                    "internalType": "address",
                    "name": "_theMighty",
                    "type": "address"
                }
            ],
            "stateMutability": "nonpayable",
            "type": "constructor"
        },
        {
            "inputs": [
                {
                    "internalType": "address",
                    "name": "sender",
                    "type": "address"
                },
                {
                    "internalType": "uint256",
                    "name": "balance",
                    "type": "uint256"
                },
                {
                    "internalType": "uint256",
                    "name": "needed",
                    "type": "uint256"
                },
                {
                    "internalType": "uint256",
                    "name": "tokenId",
                    "type": "uint256"
                }
            ],
            "name": "ERC1155InsufficientBalance",
            "type": "error"
        },
        {
            "inputs": [
                {
                    "internalType": "address",
                    "name": "approver",
                    "type": "address"
                }
            ],
            "name": "ERC1155InvalidApprover",
            "type": "error"
        },
        {
            "inputs": [
                {
                    "internalType": "uint256",
                    "name": "idsLength",
                    "type": "uint256"
                },
                {
                    "internalType": "uint256",
                    "name": "valuesLength",
                    "type": "uint256"
                }
            ],
            "name": "ERC1155InvalidArrayLength",
            "type": "error"
        },
        {
            "inputs": [
                {
                    "internalType": "address",
                    "name": "operator",
                    "type": "address"
                }
            ],
            "name": "ERC1155InvalidOperator",
            "type": "error"
        },
        {
            "inputs": [
                {
                    "internalType": "address",
                    "name": "receiver",
                    "type": "address"
                }
            ],
            "name": "ERC1155InvalidReceiver",
            "type": "error"
        },
        {
            "inputs": [
                {
                    "internalType": "address",
                    "name": "sender",
                    "type": "address"
                }
            ],
            "name": "ERC1155InvalidSender",
            "type": "error"
        },
        {
            "inputs": [
                {
                    "internalType": "address",
                    "name": "operator",
                    "type": "address"
                },
                {
                    "internalType": "address",
                    "name": "owner",
                    "type": "address"
                }
            ],
            "name": "ERC1155MissingApprovalForAll",
            "type": "error"
        },
        {
            "anonymous": false,
            "inputs": [
                {
                    "indexed": true,
                    "internalType": "address",
                    "name": "account",
                    "type": "address"
                },
                {
                    "indexed": true,
                    "internalType": "address",
                    "name": "operator",
                    "type": "address"
                },
                {
                    "indexed": false,
                    "internalType": "bool",
                    "name": "approved",
                    "type": "bool"
                }
            ],
            "name": "ApprovalForAll",
            "type": "event"
        },
        {
            "anonymous": false,
            "inputs": [
                {
                    "indexed": true,
                    "internalType": "address",
                    "name": "operator",
                    "type": "address"
                },
                {
                    "indexed": true,
                    "internalType": "address",
                    "name": "from",
                    "type": "address"
                },
                {
                    "indexed": true,
                    "internalType": "address",
                    "name": "to",
                    "type": "address"
                },
                {
                    "indexed": false,
                    "internalType": "uint256[]",
                    "name": "ids",
                    "type": "uint256[]"
                },
                {
                    "indexed": false,
                    "internalType": "uint256[]",
                    "name": "values",
                    "type": "uint256[]"
                }
            ],
            "name": "TransferBatch",
            "type": "event"
        },
        {
            "anonymous": false,
            "inputs": [
                {
                    "indexed": true,
                    "internalType": "address",
                    "name": "operator",
                    "type": "address"
                },
                {
                    "indexed": true,
                    "internalType": "address",
                    "name": "from",
                    "type": "address"
                },
                {
                    "indexed": true,
                    "internalType": "address",
                    "name": "to",
                    "type": "address"
                },
                {
                    "indexed": false,
                    "internalType": "uint256",
                    "name": "id",
                    "type": "uint256"
                },
                {
                    "indexed": false,
                    "internalType": "uint256",
                    "name": "value",
                    "type": "uint256"
                }
            ],
            "name": "TransferSingle",
            "type": "event"
        },
        {
            "anonymous": false,
            "inputs": [
                {
                    "indexed": false,
                    "internalType": "string",
                    "name": "value",
                    "type": "string"
                },
                {
                    "indexed": true,
                    "internalType": "uint256",
                    "name": "id",
                    "type": "uint256"
                }
            ],
            "name": "URI",
            "type": "event"
        },
        {
            "inputs": [],
            "name": "ZDK",
            "outputs": [
                {
                    "internalType": "contract ZodiakNFT",
                    "name": "",
                    "type": "address"
                }
            ],
            "stateMutability": "view",
            "type": "function"
        },
        {
            "inputs": [
                {
                    "internalType": "address",
                    "name": "account",
                    "type": "address"
                },
                {
                    "internalType": "uint256",
                    "name": "id",
                    "type": "uint256"
                }
            ],
            "name": "balanceOf",
            "outputs": [
                {
                    "internalType": "uint256",
                    "name": "",
                    "type": "uint256"
                }
            ],
            "stateMutability": "view",
            "type": "function"
        },
        {
            "inputs": [
                {
                    "internalType": "address[]",
                    "name": "accounts",
                    "type": "address[]"
                },
                {
                    "internalType": "uint256[]",
                    "name": "ids",
                    "type": "uint256[]"
                }
            ],
            "name": "balanceOfBatch",
            "outputs": [
                {
                    "internalType": "uint256[]",
                    "name": "",
                    "type": "uint256[]"
                }
            ],
            "stateMutability": "view",
            "type": "function"
        },
        {
            "inputs": [
                {
                    "internalType": "uint256",
                    "name": "_idFrom",
                    "type": "uint256"
                },
                {
                    "internalType": "uint256",
                    "name": "_idTo",
                    "type": "uint256"
                },
                {
                    "internalType": "address",
                    "name": "_owner",
                    "type": "address"
                }
            ],
            "name": "cosmicMutation",
            "outputs": [],
            "stateMutability": "nonpayable",
            "type": "function"
        },
        {
            "inputs": [
                {
                    "internalType": "uint256",
                    "name": "_id",
                    "type": "uint256"
                },
                {
                    "internalType": "uint16",
                    "name": "_strength",
                    "type": "uint16"
                },
                {
                    "internalType": "uint16",
                    "name": "_agility",
                    "type": "uint16"
                },
                {
                    "internalType": "uint16",
                    "name": "_intelligence",
                    "type": "uint16"
                },
                {
                    "internalType": "uint16",
                    "name": "_vitality",
                    "type": "uint16"
                },
                {
                    "internalType": "uint16",
                    "name": "_luck",
                    "type": "uint16"
                }
            ],
            "name": "cosmicReshape",
            "outputs": [],
            "stateMutability": "nonpayable",
            "type": "function"
        },
        {
            "inputs": [],
            "name": "createPool",
            "outputs": [],
            "stateMutability": "nonpayable",
            "type": "function"
        },
        {
            "inputs": [
                {
                    "internalType": "string[]",
                    "name": "_uris",
                    "type": "string[]"
                }
            ],
            "name": "initURI",
            "outputs": [],
            "stateMutability": "nonpayable",
            "type": "function"
        },
        {
            "inputs": [
                {
                    "internalType": "address",
                    "name": "account",
                    "type": "address"
                },
                {
                    "internalType": "address",
                    "name": "operator",
                    "type": "address"
                }
            ],
            "name": "isApprovedForAll",
            "outputs": [
                {
                    "internalType": "bool",
                    "name": "",
                    "type": "bool"
                }
            ],
            "stateMutability": "view",
            "type": "function"
        },
        {
            "inputs": [
                {
                    "internalType": "uint256",
                    "name": "",
                    "type": "uint256"
                }
            ],
            "name": "lotteryPools",
            "outputs": [
                {
                    "internalType": "uint256",
                    "name": "startTimestamp",
                    "type": "uint256"
                },
                {
                    "internalType": "uint256",
                    "name": "endTimestamp",
                    "type": "uint256"
                },
                {
                    "internalType": "uint256",
                    "name": "pot",
                    "type": "uint256"
                },
                {
                    "internalType": "uint256",
                    "name": "numberOfWinningTickets",
                    "type": "uint256"
                },
                {
                    "internalType": "uint256",
                    "name": "tier1",
                    "type": "uint256"
                },
                {
                    "internalType": "uint256",
                    "name": "tier2",
                    "type": "uint256"
                },
                {
                    "internalType": "uint256",
                    "name": "tier3",
                    "type": "uint256"
                },
                {
                    "internalType": "uint256",
                    "name": "tier4",
                    "type": "uint256"
                },
                {
                    "internalType": "uint256",
                    "name": "tier5",
                    "type": "uint256"
                },
                {
                    "internalType": "uint256",
                    "name": "unusedPrizeTickets",
                    "type": "uint256"
                }
            ],
            "stateMutability": "view",
            "type": "function"
        },
        {
            "inputs": [
                {
                    "internalType": "uint256",
                    "name": "_poolId",
                    "type": "uint256"
                }
            ],
            "name": "revealPrize",
            "outputs": [
                {
                    "internalType": "uint256",
                    "name": "prizeTokenId",
                    "type": "uint256"
                }
            ],
            "stateMutability": "nonpayable",
            "type": "function"
        },
        {
            "inputs": [
                {
                    "internalType": "address",
                    "name": "from",
                    "type": "address"
                },
                {
                    "internalType": "address",
                    "name": "to",
                    "type": "address"
                },
                {
                    "internalType": "uint256[]",
                    "name": "ids",
                    "type": "uint256[]"
                },
                {
                    "internalType": "uint256[]",
                    "name": "values",
                    "type": "uint256[]"
                },
                {
                    "internalType": "bytes",
                    "name": "data",
                    "type": "bytes"
                }
            ],
            "name": "safeBatchTransferFrom",
            "outputs": [],
            "stateMutability": "nonpayable",
            "type": "function"
        },
        {
            "inputs": [
                {
                    "internalType": "address",
                    "name": "from",
                    "type": "address"
                },
                {
                    "internalType": "address",
                    "name": "to",
                    "type": "address"
                },
                {
                    "internalType": "uint256",
                    "name": "id",
                    "type": "uint256"
                },
                {
                    "internalType": "uint256",
                    "name": "value",
                    "type": "uint256"
                },
                {
                    "internalType": "bytes",
                    "name": "data",
                    "type": "bytes"
                }
            ],
            "name": "safeTransferFrom",
            "outputs": [],
            "stateMutability": "nonpayable",
            "type": "function"
        },
        {
            "inputs": [
                {
                    "internalType": "address",
                    "name": "operator",
                    "type": "address"
                },
                {
                    "internalType": "bool",
                    "name": "approved",
                    "type": "bool"
                }
            ],
            "name": "setApprovalForAll",
            "outputs": [],
            "stateMutability": "nonpayable",
            "type": "function"
        },
        {
            "inputs": [
                {
                    "internalType": "uint256",
                    "name": "_maxCollections",
                    "type": "uint256"
                }
            ],
            "name": "setMaxCollections",
            "outputs": [],
            "stateMutability": "nonpayable",
            "type": "function"
        },
        {
            "inputs": [
                {
                    "internalType": "uint256",
                    "name": "_price",
                    "type": "uint256"
                }
            ],
            "name": "setPrice",
            "outputs": [],
            "stateMutability": "nonpayable",
            "type": "function"
        },
        {
            "inputs": [
                {
                    "internalType": "uint256",
                    "name": "_zodiakChoice",
                    "type": "uint256"
                }
            ],
            "name": "spinTheWheel",
            "outputs": [
                {
                    "internalType": "bool",
                    "name": "win",
                    "type": "bool"
                }
            ],
            "stateMutability": "nonpayable",
            "type": "function"
        },
        {
            "inputs": [
                {
                    "internalType": "uint256",
                    "name": "_amount",
                    "type": "uint256"
                }
            ],
            "name": "summonLuck",
            "outputs": [],
            "stateMutability": "payable",
            "type": "function"
        },
        {
            "inputs": [
                {
                    "internalType": "bytes4",
                    "name": "interfaceId",
                    "type": "bytes4"
                }
            ],
            "name": "supportsInterface",
            "outputs": [
                {
                    "internalType": "bool",
                    "name": "",
                    "type": "bool"
                }
            ],
            "stateMutability": "view",
            "type": "function"
        },
        {
            "inputs": [],
            "name": "tallyPool",
            "outputs": [],
            "stateMutability": "nonpayable",
            "type": "function"
        },
        {
            "inputs": [
                {
                    "internalType": "uint256",
                    "name": "tokenId",
                    "type": "uint256"
                }
            ],
            "name": "uri",
            "outputs": [
                {
                    "internalType": "string",
                    "name": "",
                    "type": "string"
                }
            ],
            "stateMutability": "view",
            "type": "function"
        },
        {
            "inputs": [
                {
                    "internalType": "address",
                    "name": "user",
                    "type": "address"
                },
                {
                    "internalType": "uint256",
                    "name": "poolId",
                    "type": "uint256"
                },
                {
                    "internalType": "uint256",
                    "name": "",
                    "type": "uint256"
                }
            ],
            "name": "userWinningTickets",
            "outputs": [
                {
                    "internalType": "uint256",
                    "name": "",
                    "type": "uint256"
                }
            ],
            "stateMutability": "view",
            "type": "function"
        },
        {
            "inputs": [
                {
                    "internalType": "uint256",
                    "name": "tokenId",
                    "type": "uint256"
                },
                {
                    "internalType": "address",
                    "name": "_from",
                    "type": "address"
                },
                {
                    "internalType": "uint256",
                    "name": "_amount",
                    "type": "uint256"
                }
            ],
            "name": "voidRelease",
            "outputs": [],
            "stateMutability": "nonpayable",
            "type": "function"
        },
        {
            "inputs": [
                {
                    "internalType": "uint256",
                    "name": "",
                    "type": "uint256"
                }
            ],
            "name": "zodiakBonuses",
            "outputs": [
                {
                    "internalType": "uint16",
                    "name": "strength",
                    "type": "uint16"
                },
                {
                    "internalType": "uint16",
                    "name": "agility",
                    "type": "uint16"
                },
                {
                    "internalType": "uint16",
                    "name": "intelligence",
                    "type": "uint16"
                },
                {
                    "internalType": "uint16",
                    "name": "vitality",
                    "type": "uint16"
                },
                {
                    "internalType": "uint16",
                    "name": "luck",
                    "type": "uint16"
                }
            ],
            "stateMutability": "view",
            "type": "function"
        }
    ],
    "bytecode": "60e06040525f60c09081526003906100179082610167565b506013600755600c600855662386f26fc10000600955348015610038575f80fd5b50604051612e89380380612e8983398101604081905261005791610226565b60408051808201909152601681527f68747470733a2f2f7a6f6469616b6e66742e636f6d2f0000000000000000000060208201528181610096816100bf565b50600580546001600160a01b0319166001600160a01b0392909216919091179055506102539050565b60026100cb8282610167565b5050565b634e487b7160e01b5f52604160045260245ffd5b600181811c908216806100f757607f821691505b60208210810361011557634e487b7160e01b5f52602260045260245ffd5b50919050565b601f82111561016257805f5260205f20601f840160051c810160208510156101405750805b601f840160051c820191505b8181101561015f575f815560010161014c565b50505b505050565b81516001600160401b03811115610180576101806100cf565b6101948161018e84546100e3565b8461011b565b602080601f8311600181146101c7575f84156101b05750858301515b5f19600386901b1c1916600185901b17855561021e565b5f85815260208120601f198616915b828110156101f5578886015182559484019460019091019084016101d6565b508582101561021257878501515f19600388901b60f8161c191681555b505060018460011b0185555b505050505050565b5f60208284031215610236575f80fd5b81516001600160a01b038116811461024c575f80fd5b9392505050565b60805160a051612c156102745f395f61183d01525f6104430152612c155ff3fe60806040526004361061013b575f3560e01c8063571ecec9116100b3578063a6bf31811161006d578063a6bf318114610432578063cc8663751461047d578063dfd863ca14610491578063e985e9c5146104b0578063eb46eb23146104cf578063f242432a146104ee575f80fd5b8063571ecec91461038f5780635fd6bfbd146103ae57806391b7f5ed146103c1578063972d6c6d146103e05780639a06b113146103ff578063a22cb46514610413575f80fd5b806317a03ee91161010457806317a03ee91461027e57806318cb2b811461029d5780632eb2c2d6146102bc5780633845b017146102db57806344ed3f58146102fa5780634e1273f414610363575f80fd5b8062fdd58e1461013f57806301ffc9a7146101715780630d0ee140146101a05780630e89341c146102315780631269555f1461025d575b5f80fd5b34801561014a575f80fd5b5061015e6101593660046121cc565b61050d565b6040519081526020015b60405180910390f35b34801561017c575f80fd5b5061019061018b366004612209565b610534565b6040519015158152602001610168565b3480156101ab575f80fd5b506101fc6101ba366004612224565b600a6020525f908152604090205461ffff80821691620100008104821691640100000000820481169166010000000000008104821691600160401b9091041685565b6040805161ffff968716815294861660208601529285169284019290925283166060830152909116608082015260a001610168565b34801561023c575f80fd5b5061025061024b366004612224565b610583565b6040516101689190612269565b348015610268575f80fd5b5061027c610277366004612224565b61065f565b005b348015610289575f80fd5b5061027c61029836600461228c565b610697565b3480156102a8575f80fd5b506101906102b7366004612224565b610784565b3480156102c7575f80fd5b5061027c6102d636600461243c565b6109d1565b3480156102e6575f80fd5b5061027c6102f53660046124df565b610a38565b348015610305575f80fd5b50610319610314366004612224565b610a9c565b604080519a8b5260208b0199909952978901969096526060880194909452608087019290925260a086015260c085015260e084015261010083015261012082015261014001610168565b34801561036e575f80fd5b5061038261037d36600461259c565b610afb565b6040516101689190612690565b34801561039a575f80fd5b5061027c6103a93660046126a2565b610bc6565b61027c6103bc366004612224565b610c91565b3480156103cc575f80fd5b5061027c6103db366004612224565b610d63565b3480156103eb575f80fd5b5061015e6103fa366004612224565b610d92565b34801561040a575f80fd5b5061027c611274565b34801561041e575f80fd5b5061027c61042d3660046126d4565b6114dc565b34801561043d575f80fd5b506104657f000000000000000000000000000000000000000000000000000000000000000081565b6040516001600160a01b039091168152602001610168565b348015610488575f80fd5b5061027c6114e7565b34801561049c575f80fd5b5061015e6104ab36600461270d565b611889565b3480156104bb575f80fd5b506101906104ca36600461273d565b6118b6565b3480156104da575f80fd5b5061027c6104e936600461276e565b6118e3565b3480156104f9575f80fd5b5061027c6105083660046127a0565b6118ee565b5f818152602081815260408083206001600160a01b03861684529091529020545b92915050565b5f6001600160e01b03198216636cdb3d1360e11b148061056457506001600160e01b031982166303a24d0760e21b145b8061052e57506301ffc9a760e01b6001600160e01b031983161461052e565b5f818152600460205260408120805460609291906105a090612800565b80601f01602080910402602001604051908101604052809291908181526020018280546105cc90612800565b80156106175780601f106105ee57610100808354040283529160200191610617565b820191905f5260205f20905b8154815290600101906020018083116105fa57829003601f168201915b505050505090505f8151116106345761062f8361194d565b610658565b600381604051602001610648929190612832565b6040516020818303038152906040525b9392505050565b6005546001600160a01b031633146106925760405162461bcd60e51b8152600401610689906128b3565b60405180910390fd5b600755565b6005546001600160a01b031633146106c15760405162461bcd60e51b8152600401610689906128b3565b6040805160a08101825261ffff9687168152948616602080870191825294871686830190815293871660608701908152928716608087019081525f988952600a909552962093518454965192519151935190861663ffffffff199097169690961762010000928616929092029190911767ffffffff0000000019166401000000009185169190910267ffff0000000000001916176601000000000000918416919091021769ffff00000000000000001916600160401b9390921692909202179055565b600c80545f919061079790600190612910565b815481106107a7576107a7612923565b905f5260205f2090600f02016001015442106108055760405162461bcd60e51b815260206004820152601960248201527f43616e6e6f74207370696e2074686520776865656c20796574000000000000006044820152606401610689565b6001610811335f61050d565b101561082f5760405162461bcd60e51b815260040161068990612937565b5f8211801561083e5750600d82105b6108775760405162461bcd60e51b815260206004820152600a602482015269125b9d985b1a59081a5960b21b6044820152606401610689565b600c8054662386f26fc10000919061089190600190612910565b815481106108a1576108a1612923565b905f5260205f2090600f02016002015f8282546108be9190612965565b9091555050604080514260208201526bffffffffffffffffffffffff193360601b1691810191909152605481018390525f90606590607401604051602081830303815290604052805190602001205f1c610918919061298c565b9050600c8110156109bc5761092f5f600d33610bc6565b600c805461093f90600190612910565b8154811061094f5761094f612923565b5f918252602082206003600f909202010180549161096c8361299f565b9091555050600c805461098190600190612910565b8154811061099157610991612923565b5f91825260208220600e600f90920201018054916109ae8361299f565b9190505550600191506109cb565b6109c75f8433610bc6565b5f91505b50919050565b336001600160a01b03861681148015906109f257506109f086826118b6565b155b15610a235760405163711bec9160e11b81526001600160a01b03808316600483015287166024820152604401610689565b610a3086868686866119df565b505050505050565b6005546001600160a01b03163314610a625760405162461bcd60e51b8152600401610689906128b3565b5f5b8151811015610a9857610a9081838381518110610a8357610a83612923565b6020026020010151611a44565b600101610a64565b5050565b600c8181548110610aab575f80fd5b905f5260205f2090600f02015f91509050805f01549080600101549080600201549080600301549080600401549080600501549080600601549080600701549080600801549080600e015490508a565b60608151835114610b2c5781518351604051635b05999160e01b815260048101929092526024820152604401610689565b5f835167ffffffffffffffff811115610b4757610b476122f5565b604051908082528060200260200182016040528015610b70578160200160208202803683370190505b5090505f5b8451811015610bbe57602080820286010151610b999060208084028701015161050d565b828281518110610bab57610bab612923565b6020908102919091010152600101610b75565b509392505050565b6005546001600160a01b03163314610bf05760405162461bcd60e51b8152600401610689906128b3565b6001610bfc828561050d565b1015610c1a5760405162461bcd60e51b815260040161068990612937565b60075483108015610c2c575060075482105b610c655760405162461bcd60e51b815260206004820152600a602482015269125b9d985b1a59081a5960b21b6044820152606401610689565b610c7181846001611aa0565b610c8c8183600160405180602001604052805f815250611b06565b505050565b80600954610c9f91906129b7565b341015610ce15760405162461bcd60e51b815260206004820152601060248201526f125b98dbdc9c9958dd08185b5bdd5b9d60821b6044820152606401610689565b600a81610cee335f61050d565b610cf89190612965565b1115610d465760405162461bcd60e51b815260206004820152601b60248201527f596f752063616e206f6e6c79206d696e7420313020746f6b656e7300000000006044820152606401610689565b610d60335f8360405180602001604052805f815250611b06565b50565b6005546001600160a01b03163314610d8d5760405162461bcd60e51b8152600401610689906128b3565b600955565b5f80610d9f33600d61050d565b11610dbc5760405162461bcd60e51b815260040161068990612937565b5f60644233604051602001610dfc92919091825260601b6bffffffffffffffffffffffff19166020820152655a6f6469616b60d01b6034820152603a0190565b604051602081830303815290604052805190602001205f1c610e1e919061298c565b905060148111610ef1575f600c8481548110610e3c57610e3c612923565b5f918252602082206009600f909202010101541115610ee857335f908152600b60205260408120600c54600e9450909190610e7990600190612910565b81526020019081526020015f205f60058110610e9757610e97612923565b018054905f610ea58361299f565b9190505550600c8381548110610ebd57610ebd612923565b5f918252602082206009600f9092020101905b018054905f610ede836129ce565b9190505550611233565b600f9150611233565b60288111158015610f025750601481115b80610f0d575081600f145b15610fd4575f600c8481548110610f2657610f26612923565b905f5260205f2090600f0201600901600160058110610f4757610f47612923565b01541115610fcb57335f908152600b60205260408120600c54600f9450909190610f7390600190612910565b815260208101919091526040015f206001018054905f610f928361299f565b9190505550600c8381548110610faa57610faa612923565b905f5260205f2090600f0201600901600160058110610ed057610ed0612923565b60109150611233565b603c8111158015610fe55750602881115b80610ff05750816010145b156110b7575f600c848154811061100957611009612923565b905f5260205f2090600f020160090160026005811061102a5761102a612923565b015411156110ae57335f908152600b60205260408120600c546010945090919061105690600190612910565b815260208101919091526040015f206002018054905f6110758361299f565b9190505550600c838154811061108d5761108d612923565b905f5260205f2090600f0201600901600260058110610ed057610ed0612923565b60119150611233565b605081111580156110c85750603c81115b1561118f575f600c84815481106110e1576110e1612923565b905f5260205f2090600f020160090160036005811061110257611102612923565b0154111561118657335f908152600b60205260408120600c546011945090919061112e90600190612910565b815260208101919091526040015f206003018054905f61114d8361299f565b9190505550600c838154811061116557611165612923565b905f5260205f2090600f0201600901600360058110610ed057610ed0612923565b60129150611233565b605081118061119e5750816012145b1561123357335f908152600b60205260408120600c54601294509091906111c790600190612910565b815260208101919091526040015f206004018054905f6111e68361299f565b9190505550600c83815481106111fe576111fe612923565b905f5260205f2090600f020160090160046005811061121f5761121f612923565b018054905f61122d836129ce565b91905055505b600c838154811061124657611246612923565b5f91825260208220600e600f9092020101805491611263836129ce565b91905055506109cb600d8333610bc6565b600c805461128490600190612910565b8154811061129457611294612923565b905f5260205f2090600f02016001015442116112f25760405162461bcd60e51b815260206004820152601a60248201527f43616e6e6f7420637265617465206e657720706f6f6c207965740000000000006044820152606401610689565b6112fa6120eb565b4280825261130a90612a30612965565b60208201908152600c80546001810182555f919091528251600f9091027fdf6966c971051c3d54ec59162606531493a51404a002842f56009d7e5cf4a8c7810191825591517fdf6966c971051c3d54ec59162606531493a51404a002842f56009d7e5cf4a8c883015560408301517fdf6966c971051c3d54ec59162606531493a51404a002842f56009d7e5cf4a8c983015560608301517fdf6966c971051c3d54ec59162606531493a51404a002842f56009d7e5cf4a8ca83015560808301517fdf6966c971051c3d54ec59162606531493a51404a002842f56009d7e5cf4a8cb83015560a08301517fdf6966c971051c3d54ec59162606531493a51404a002842f56009d7e5cf4a8cc83015560c08301517fdf6966c971051c3d54ec59162606531493a51404a002842f56009d7e5cf4a8cd83015560e08301517fdf6966c971051c3d54ec59162606531493a51404a002842f56009d7e5cf4a8ce8301556101008301517fdf6966c971051c3d54ec59162606531493a51404a002842f56009d7e5cf4a8cf83015561012083015183926114cb917fdf6966c971051c3d54ec59162606531493a51404a002842f56009d7e5cf4a8d0909101906005612141565b5061014082015181600e0155505050565b610a98338383611b61565b6005546001600160a01b031633146115115760405162461bcd60e51b8152600401610689906128b3565b600c80545f919061152490600190612910565b8154811061153457611534612923565b905f5260205f2090600f0201604051806101600160405290815f82015481526020016001820154815260200160028201548152602001600382015481526020016004820154815260200160058201548152602001600682015481526020016007820154815260200160088201548152602001600982016005806020026040519081016040528092919082600580156115e1576020028201915b8154815260200190600101908083116115cd575b50505050508152602001600e8201548152505090505f600c6001600c8054905061160b9190612910565b8154811061161b5761161b612923565b905f5260205f2090600f020190505f60648360400151600a61163d91906129b7565b61164791906129e3565b90508083604001516116599190612910565b604084018190526002830155602083015142116116b05760405162461bcd60e51b815260206004820152601560248201527410d85b9b9bdd081d185b1b1e481c1bdbdb081e595d605a1b6044820152606401610689565b5f8360600151116116f85760405162461bcd60e51b81526020600482015260126024820152714e6f2077696e6e696e67207469636b65747360701b6044820152606401610689565b60648360400151601961170b91906129b7565b61171591906129e3565b6004830155604083015160649061172d90600a6129b7565b61173791906129e3565b826005018190555060648360400151600561175291906129b7565b61175c91906129e3565b600683015560408301516064906117749060146129b7565b61177e91906129e3565b600783015560408301516064906117969060286129b7565b6117a091906129e3565b82600801819055506040518060a001604052806001815260200160018152602001600181526020016064600386606001516117db9190612910565b6117e690601e6129b7565b6117f091906129e3565b81526020016064600386606001516118089190612910565b6118139060466129b7565b61181d91906129e3565b905261182f9060098401906005612141565b506040516001600160a01b037f0000000000000000000000000000000000000000000000000000000000000000169082156108fc029083905f818181858888f19350505050158015611883573d5f803e3d5ffd5b50505050565b600b602052825f5260405f20602052815f5260405f2081600581106118ac575f80fd5b0154925083915050565b6001600160a01b039182165f90815260016020908152604080832093909416825291909152205460ff1690565b610c8c828483611aa0565b336001600160a01b038616811480159061190f575061190d86826118b6565b155b156119405760405163711bec9160e11b81526001600160a01b03808316600483015287166024820152604401610689565b610a308686868686611bf5565b60606002805461195c90612800565b80601f016020809104026020016040519081016040528092919081815260200182805461198890612800565b80156119d35780601f106119aa576101008083540402835291602001916119d3565b820191905f5260205f20905b8154815290600101906020018083116119b657829003601f168201915b50505050509050919050565b6001600160a01b038416611a0857604051632bfa23e760e11b81525f6004820152602401610689565b6001600160a01b038516611a3057604051626a0d4560e21b81525f6004820152602401610689565b611a3d8585858585611c81565b5050505050565b5f828152600460205260409020611a5b8282612a3a565b50817f6bb7ff708619ba0610cba295a58592e0451dee2622938c8755667688daf3529b611a8784610583565b604051611a949190612269565b60405180910390a25050565b6001600160a01b038316611ac857604051626a0d4560e21b81525f6004820152602401610689565b604080516001808252602082018590528183019081526060820184905260a082019092525f60808201818152919291611a3d91879185908590611c81565b6001600160a01b038416611b2f57604051632bfa23e760e11b81525f6004820152602401610689565b60408051600180825260208201869052818301908152606082018590526080820190925290610a305f87848487611c81565b6001600160a01b038216611b895760405162ced3e160e81b81525f6004820152602401610689565b6001600160a01b038381165f81815260016020908152604080832094871680845294825291829020805460ff191686151590811790915591519182527f17307eab39ab6107e8899845ad3d59bd9653f200f220920489ca2b5937696c31910160405180910390a3505050565b6001600160a01b038416611c1e57604051632bfa23e760e11b81525f6004820152602401610689565b6001600160a01b038516611c4657604051626a0d4560e21b81525f6004820152602401610689565b60408051600180825260208201869052818301908152606082018590526080820190925290611c788787848487611c81565b50505050505050565b611c8d85858585611cd4565b6001600160a01b03841615611a3d5782513390600103611cc65760208481015190840151611cbf838989858589611ee3565b5050610a30565b610a30818787878787612004565b8051825114611d035781518151604051635b05999160e01b815260048101929092526024820152604401610689565b335f5b8351811015611e05576020818102858101820151908501909101516001600160a01b03881615611db7575f828152602081815260408083206001600160a01b038c16845290915290205481811015611d91576040516303dee4c560e01b81526001600160a01b038a166004820152602481018290526044810183905260648101849052608401610689565b5f838152602081815260408083206001600160a01b038d16845290915290209082900390555b6001600160a01b03871615611dfb575f828152602081815260408083206001600160a01b038b16845290915281208054839290611df5908490612965565b90915550505b5050600101611d06565b508251600103611e855760208301515f906020840151909150856001600160a01b0316876001600160a01b0316846001600160a01b03167fc3d58168c5ae7397731d063d5bbf3d657854427343f4c083240f7aacaa2d0f628585604051611e76929190918252602082015260400190565b60405180910390a45050611a3d565b836001600160a01b0316856001600160a01b0316826001600160a01b03167f4a39dc06d4c0dbc64b70af90fd698a233a518aa5d07e595d983b8c0526c8f7fb8686604051611ed4929190612af6565b60405180910390a45050505050565b6001600160a01b0384163b15610a305760405163f23a6e6160e01b81526001600160a01b0385169063f23a6e6190611f279089908990889088908890600401612b23565b6020604051808303815f875af1925050508015611f61575060408051601f3d908101601f19168201909252611f5e91810190612b67565b60015b611fc8573d808015611f8e576040519150601f19603f3d011682016040523d82523d5f602084013e611f93565b606091505b5080515f03611fc057604051632bfa23e760e11b81526001600160a01b0386166004820152602401610689565b805181602001fd5b6001600160e01b0319811663f23a6e6160e01b14611c7857604051632bfa23e760e11b81526001600160a01b0386166004820152602401610689565b6001600160a01b0384163b15610a305760405163bc197c8160e01b81526001600160a01b0385169063bc197c81906120489089908990889088908890600401612b82565b6020604051808303815f875af1925050508015612082575060408051601f3d908101601f1916820190925261207f91810190612b67565b60015b6120af573d808015611f8e576040519150601f19603f3d011682016040523d82523d5f602084013e611f93565b6001600160e01b0319811663bc197c8160e01b14611c7857604051632bfa23e760e11b81526001600160a01b0386166004820152602401610689565b6040518061016001604052805f81526020015f81526020015f81526020015f81526020015f81526020015f81526020015f81526020015f81526020015f815260200161213561217f565b81526020015f81525090565b826005810192821561216f579160200282015b8281111561216f578251825591602001919060010190612154565b5061217b92915061219d565b5090565b6040518060a001604052806005906020820280368337509192915050565b5b8082111561217b575f815560010161219e565b80356001600160a01b03811681146121c7575f80fd5b919050565b5f80604083850312156121dd575f80fd5b6121e6836121b1565b946020939093013593505050565b6001600160e01b031981168114610d60575f80fd5b5f60208284031215612219575f80fd5b8135610658816121f4565b5f60208284031215612234575f80fd5b5035919050565b5f81518084528060208401602086015e5f602082860101526020601f19601f83011685010191505092915050565b602081525f610658602083018461223b565b803561ffff811681146121c7575f80fd5b5f805f805f8060c087890312156122a1575f80fd5b863595506122b16020880161227b565b94506122bf6040880161227b565b93506122cd6060880161227b565b92506122db6080880161227b565b91506122e960a0880161227b565b90509295509295509295565b634e487b7160e01b5f52604160045260245ffd5b604051601f8201601f1916810167ffffffffffffffff81118282101715612332576123326122f5565b604052919050565b5f67ffffffffffffffff821115612353576123536122f5565b5060051b60200190565b5f82601f83011261236c575f80fd5b8135602061238161237c8361233a565b612309565b8083825260208201915060208460051b8701019350868411156123a2575f80fd5b602086015b848110156123be57803583529183019183016123a7565b509695505050505050565b5f67ffffffffffffffff8311156123e2576123e26122f5565b6123f5601f8401601f1916602001612309565b9050828152838383011115612408575f80fd5b828260208301375f602084830101529392505050565b5f82601f83011261242d575f80fd5b610658838335602085016123c9565b5f805f805f60a08688031215612450575f80fd5b612459866121b1565b9450612467602087016121b1565b9350604086013567ffffffffffffffff80821115612483575f80fd5b61248f89838a0161235d565b945060608801359150808211156124a4575f80fd5b6124b089838a0161235d565b935060808801359150808211156124c5575f80fd5b506124d28882890161241e565b9150509295509295909350565b5f60208083850312156124f0575f80fd5b823567ffffffffffffffff80821115612507575f80fd5b818501915085601f83011261251a575f80fd5b813561252861237c8261233a565b81815260059190911b83018401908481019088831115612546575f80fd5b8585015b8381101561258f57803585811115612560575f80fd5b8601603f81018b13612570575f80fd5b6125818b89830135604084016123c9565b84525091860191860161254a565b5098975050505050505050565b5f80604083850312156125ad575f80fd5b823567ffffffffffffffff808211156125c4575f80fd5b818501915085601f8301126125d7575f80fd5b813560206125e761237c8361233a565b82815260059290921b84018101918181019089841115612605575f80fd5b948201945b8386101561262a5761261b866121b1565b8252948201949082019061260a565b9650508601359250508082111561263f575f80fd5b5061264c8582860161235d565b9150509250929050565b5f815180845260208085019450602084015f5b8381101561268557815187529582019590820190600101612669565b509495945050505050565b602081525f6106586020830184612656565b5f805f606084860312156126b4575f80fd5b83359250602084013591506126cb604085016121b1565b90509250925092565b5f80604083850312156126e5575f80fd5b6126ee836121b1565b915060208301358015158114612702575f80fd5b809150509250929050565b5f805f6060848603121561271f575f80fd5b612728846121b1565b95602085013595506040909401359392505050565b5f806040838503121561274e575f80fd5b612757836121b1565b9150612765602084016121b1565b90509250929050565b5f805f60608486031215612780575f80fd5b83359250612790602085016121b1565b9150604084013590509250925092565b5f805f805f60a086880312156127b4575f80fd5b6127bd866121b1565b94506127cb602087016121b1565b93506040860135925060608601359150608086013567ffffffffffffffff8111156127f4575f80fd5b6124d28882890161241e565b600181811c9082168061281457607f821691505b6020821081036109cb57634e487b7160e01b5f52602260045260245ffd5b5f80845461283f81612800565b60018281168015612857576001811461286c57612898565b60ff1984168752821515830287019450612898565b885f526020805f205f5b8581101561288f5781548a820152908401908201612876565b50505082870194505b5050505083518060208601835e5f9101908152949350505050565b60208082526029908201527f4f6e6c7920436f736d696320706f776572732063616e2063616c6c207468697360408201526810333ab731ba34b7b760b91b606082015260800190565b634e487b7160e01b5f52601160045260245ffd5b8181038181111561052e5761052e6128fc565b634e487b7160e01b5f52603260045260245ffd5b602080825260149082015273496e73756666696369656e742062616c616e636560601b604082015260600190565b8082018082111561052e5761052e6128fc565b634e487b7160e01b5f52601260045260245ffd5b5f8261299a5761299a612978565b500690565b5f600182016129b0576129b06128fc565b5060010190565b808202811582820484141761052e5761052e6128fc565b5f816129dc576129dc6128fc565b505f190190565b5f826129f1576129f1612978565b500490565b601f821115610c8c57805f5260205f20601f840160051c81016020851015612a1b5750805b601f840160051c820191505b81811015611a3d575f8155600101612a27565b815167ffffffffffffffff811115612a5457612a546122f5565b612a6881612a628454612800565b846129f6565b602080601f831160018114612a9b575f8415612a845750858301515b5f19600386901b1c1916600185901b178555610a30565b5f85815260208120601f198616915b82811015612ac957888601518255948401946001909101908401612aaa565b5085821015612ae657878501515f19600388901b60f8161c191681555b5050505050600190811b01905550565b604081525f612b086040830185612656565b8281036020840152612b1a8185612656565b95945050505050565b6001600160a01b03868116825285166020820152604081018490526060810183905260a0608082018190525f90612b5c9083018461223b565b979650505050505050565b5f60208284031215612b77575f80fd5b8151610658816121f4565b6001600160a01b0386811682528516602082015260a0604082018190525f90612bad90830186612656565b8281036060840152612bbf8186612656565b90508281036080840152612bd3818561223b565b9897505050505050505056fea2646970667358221220089d39ce6c7249ffaf35ed76c00f537363c40ce85a82b8b643cfccf79c23d82b64736f6c63430008190033",
    "sourcePath": "/home/torof/desk/portfolio/zodiak333/src/ZodiakLottery.sol",
    "compiler": {
        "name": "solc",
        "version": "0.8.25+commit.b61c2a91"
    },
    "functionHashes": {
        "ZDK()": "a6bf3181",
        "balanceOf(address,uint256)": "00fdd58e",
        "balanceOfBatch(address[],uint256[])": "4e1273f4",
        "cosmicMutation(uint256,uint256,address)": "571ecec9",
        "cosmicReshape(uint256,uint16,uint16,uint16,uint16,uint16)": "17a03ee9",
        "createPool()": "9a06b113",
        "initURI(string[])": "3845b017",
        "isApprovedForAll(address,address)": "e985e9c5",
        "lotteryPools(uint256)": "44ed3f58",
        "revealPrize(uint256)": "972d6c6d",
        "safeBatchTransferFrom(address,address,uint256[],uint256[],bytes)": "2eb2c2d6",
        "safeTransferFrom(address,address,uint256,uint256,bytes)": "f242432a",
        "setApprovalForAll(address,bool)": "a22cb465",
        "setMaxCollections(uint256)": "1269555f",
        "setPrice(uint256)": "91b7f5ed",
        "spinTheWheel(uint256)": "18cb2b81",
        "summonLuck(uint256)": "5fd6bfbd",
        "supportsInterface(bytes4)": "01ffc9a7",
        "tallyPool()": "cc866375",
        "uri(uint256)": "0e89341c",
        "userWinningTickets(address,uint256,uint256)": "dfd863ca",
        "voidRelease(uint256,address,uint256)": "eb46eb23",
        "zodiakBonuses(uint256)": "0d0ee140"
    },
    "gasEstimates": {
        "creation": {
            "codeDepositCost": "2257000",
            "executionCost": "infinite",
            "totalCost": "infinite"
        },
        "external": {
            "ZDK()": "infinite",
            "balanceOf(address,uint256)": "2657",
            "balanceOfBatch(address[],uint256[])": "infinite",
            "cosmicMutation(uint256,uint256,address)": "infinite",
            "cosmicReshape(uint256,uint16,uint16,uint16,uint16,uint16)": "infinite",
            "createPool()": "infinite",
            "initURI(string[])": "infinite",
            "isApprovedForAll(address,address)": "infinite",
            "lotteryPools(uint256)": "23889",
            "revealPrize(uint256)": "infinite",
            "safeBatchTransferFrom(address,address,uint256[],uint256[],bytes)": "infinite",
            "safeTransferFrom(address,address,uint256,uint256,bytes)": "infinite",
            "setApprovalForAll(address,bool)": "26789",
            "setMaxCollections(uint256)": "24574",
            "setPrice(uint256)": "24529",
            "spinTheWheel(uint256)": "infinite",
            "summonLuck(uint256)": "infinite",
            "supportsInterface(bytes4)": "575",
            "tallyPool()": "infinite",
            "uri(uint256)": "infinite",
            "userWinningTickets(address,uint256,uint256)": "2721",
            "voidRelease(uint256,address,uint256)": "infinite",
            "zodiakBonuses(uint256)": "2715"
        }
    }
}