{
    "contractName": "ZodiakLottery",
    "abi": [
        {
            "inputs": [
                {
                    "internalType": "address",
                    "name": "_theMighty",
                    "type": "address"
                },
                {
                    "internalType": "address",
                    "name": "_cosmicVault",
                    "type": "address"
                }
            ],
            "stateMutability": "nonpayable",
            "type": "constructor"
        },
        {
            "inputs": [
                {
                    "internalType": "address",
                    "name": "sender",
                    "type": "address"
                },
                {
                    "internalType": "uint256",
                    "name": "balance",
                    "type": "uint256"
                },
                {
                    "internalType": "uint256",
                    "name": "needed",
                    "type": "uint256"
                },
                {
                    "internalType": "uint256",
                    "name": "tokenId",
                    "type": "uint256"
                }
            ],
            "name": "ERC1155InsufficientBalance",
            "type": "error"
        },
        {
            "inputs": [
                {
                    "internalType": "address",
                    "name": "approver",
                    "type": "address"
                }
            ],
            "name": "ERC1155InvalidApprover",
            "type": "error"
        },
        {
            "inputs": [
                {
                    "internalType": "uint256",
                    "name": "idsLength",
                    "type": "uint256"
                },
                {
                    "internalType": "uint256",
                    "name": "valuesLength",
                    "type": "uint256"
                }
            ],
            "name": "ERC1155InvalidArrayLength",
            "type": "error"
        },
        {
            "inputs": [
                {
                    "internalType": "address",
                    "name": "operator",
                    "type": "address"
                }
            ],
            "name": "ERC1155InvalidOperator",
            "type": "error"
        },
        {
            "inputs": [
                {
                    "internalType": "address",
                    "name": "receiver",
                    "type": "address"
                }
            ],
            "name": "ERC1155InvalidReceiver",
            "type": "error"
        },
        {
            "inputs": [
                {
                    "internalType": "address",
                    "name": "sender",
                    "type": "address"
                }
            ],
            "name": "ERC1155InvalidSender",
            "type": "error"
        },
        {
            "inputs": [
                {
                    "internalType": "address",
                    "name": "operator",
                    "type": "address"
                },
                {
                    "internalType": "address",
                    "name": "owner",
                    "type": "address"
                }
            ],
            "name": "ERC1155MissingApprovalForAll",
            "type": "error"
        },
        {
            "anonymous": false,
            "inputs": [
                {
                    "indexed": true,
                    "internalType": "address",
                    "name": "account",
                    "type": "address"
                },
                {
                    "indexed": true,
                    "internalType": "address",
                    "name": "operator",
                    "type": "address"
                },
                {
                    "indexed": false,
                    "internalType": "bool",
                    "name": "approved",
                    "type": "bool"
                }
            ],
            "name": "ApprovalForAll",
            "type": "event"
        },
        {
            "anonymous": false,
            "inputs": [
                {
                    "indexed": true,
                    "internalType": "address",
                    "name": "operator",
                    "type": "address"
                },
                {
                    "indexed": true,
                    "internalType": "address",
                    "name": "from",
                    "type": "address"
                },
                {
                    "indexed": true,
                    "internalType": "address",
                    "name": "to",
                    "type": "address"
                },
                {
                    "indexed": false,
                    "internalType": "uint256[]",
                    "name": "ids",
                    "type": "uint256[]"
                },
                {
                    "indexed": false,
                    "internalType": "uint256[]",
                    "name": "values",
                    "type": "uint256[]"
                }
            ],
            "name": "TransferBatch",
            "type": "event"
        },
        {
            "anonymous": false,
            "inputs": [
                {
                    "indexed": true,
                    "internalType": "address",
                    "name": "operator",
                    "type": "address"
                },
                {
                    "indexed": true,
                    "internalType": "address",
                    "name": "from",
                    "type": "address"
                },
                {
                    "indexed": true,
                    "internalType": "address",
                    "name": "to",
                    "type": "address"
                },
                {
                    "indexed": false,
                    "internalType": "uint256",
                    "name": "id",
                    "type": "uint256"
                },
                {
                    "indexed": false,
                    "internalType": "uint256",
                    "name": "value",
                    "type": "uint256"
                }
            ],
            "name": "TransferSingle",
            "type": "event"
        },
        {
            "anonymous": false,
            "inputs": [
                {
                    "indexed": false,
                    "internalType": "string",
                    "name": "value",
                    "type": "string"
                },
                {
                    "indexed": true,
                    "internalType": "uint256",
                    "name": "id",
                    "type": "uint256"
                }
            ],
            "name": "URI",
            "type": "event"
        },
        {
            "inputs": [],
            "name": "ZDK",
            "outputs": [
                {
                    "internalType": "contract ZodiakNFT",
                    "name": "",
                    "type": "address"
                }
            ],
            "stateMutability": "view",
            "type": "function"
        },
        {
            "inputs": [
                {
                    "internalType": "address",
                    "name": "account",
                    "type": "address"
                },
                {
                    "internalType": "uint256",
                    "name": "id",
                    "type": "uint256"
                }
            ],
            "name": "balanceOf",
            "outputs": [
                {
                    "internalType": "uint256",
                    "name": "",
                    "type": "uint256"
                }
            ],
            "stateMutability": "view",
            "type": "function"
        },
        {
            "inputs": [
                {
                    "internalType": "address[]",
                    "name": "accounts",
                    "type": "address[]"
                },
                {
                    "internalType": "uint256[]",
                    "name": "ids",
                    "type": "uint256[]"
                }
            ],
            "name": "balanceOfBatch",
            "outputs": [
                {
                    "internalType": "uint256[]",
                    "name": "",
                    "type": "uint256[]"
                }
            ],
            "stateMutability": "view",
            "type": "function"
        },
        {
            "inputs": [
                {
                    "internalType": "uint256",
                    "name": "_idFrom",
                    "type": "uint256"
                },
                {
                    "internalType": "uint256",
                    "name": "_idTo",
                    "type": "uint256"
                },
                {
                    "internalType": "address",
                    "name": "_owner",
                    "type": "address"
                }
            ],
            "name": "cosmicMutation",
            "outputs": [],
            "stateMutability": "nonpayable",
            "type": "function"
        },
        {
            "inputs": [
                {
                    "internalType": "uint256",
                    "name": "_id",
                    "type": "uint256"
                },
                {
                    "internalType": "uint16",
                    "name": "_strength",
                    "type": "uint16"
                },
                {
                    "internalType": "uint16",
                    "name": "_agility",
                    "type": "uint16"
                },
                {
                    "internalType": "uint16",
                    "name": "_intelligence",
                    "type": "uint16"
                },
                {
                    "internalType": "uint16",
                    "name": "_vitality",
                    "type": "uint16"
                },
                {
                    "internalType": "uint16",
                    "name": "_luck",
                    "type": "uint16"
                }
            ],
            "name": "cosmicReshape",
            "outputs": [],
            "stateMutability": "nonpayable",
            "type": "function"
        },
        {
            "inputs": [],
            "name": "createPool",
            "outputs": [],
            "stateMutability": "nonpayable",
            "type": "function"
        },
        {
            "inputs": [
                {
                    "internalType": "string[]",
                    "name": "_uris",
                    "type": "string[]"
                }
            ],
            "name": "initURI",
            "outputs": [],
            "stateMutability": "nonpayable",
            "type": "function"
        },
        {
            "inputs": [
                {
                    "internalType": "address",
                    "name": "account",
                    "type": "address"
                },
                {
                    "internalType": "address",
                    "name": "operator",
                    "type": "address"
                }
            ],
            "name": "isApprovedForAll",
            "outputs": [
                {
                    "internalType": "bool",
                    "name": "",
                    "type": "bool"
                }
            ],
            "stateMutability": "view",
            "type": "function"
        },
        {
            "inputs": [
                {
                    "internalType": "uint256",
                    "name": "",
                    "type": "uint256"
                }
            ],
            "name": "lotteryPools",
            "outputs": [
                {
                    "internalType": "uint256",
                    "name": "startTimestamp",
                    "type": "uint256"
                },
                {
                    "internalType": "uint256",
                    "name": "endTimestamp",
                    "type": "uint256"
                },
                {
                    "internalType": "uint256",
                    "name": "pot",
                    "type": "uint256"
                },
                {
                    "internalType": "uint256",
                    "name": "numberOfWinningTickets",
                    "type": "uint256"
                },
                {
                    "internalType": "uint256",
                    "name": "tier1",
                    "type": "uint256"
                },
                {
                    "internalType": "uint256",
                    "name": "tier2",
                    "type": "uint256"
                },
                {
                    "internalType": "uint256",
                    "name": "tier3",
                    "type": "uint256"
                },
                {
                    "internalType": "uint256",
                    "name": "tier4",
                    "type": "uint256"
                },
                {
                    "internalType": "uint256",
                    "name": "tier5",
                    "type": "uint256"
                },
                {
                    "internalType": "uint256",
                    "name": "unusedPrizeTickets",
                    "type": "uint256"
                }
            ],
            "stateMutability": "view",
            "type": "function"
        },
        {
            "inputs": [
                {
                    "internalType": "uint256",
                    "name": "_poolId",
                    "type": "uint256"
                }
            ],
            "name": "revealPrize",
            "outputs": [
                {
                    "internalType": "uint256",
                    "name": "prizeTokenId",
                    "type": "uint256"
                }
            ],
            "stateMutability": "nonpayable",
            "type": "function"
        },
        {
            "inputs": [
                {
                    "internalType": "address",
                    "name": "from",
                    "type": "address"
                },
                {
                    "internalType": "address",
                    "name": "to",
                    "type": "address"
                },
                {
                    "internalType": "uint256[]",
                    "name": "ids",
                    "type": "uint256[]"
                },
                {
                    "internalType": "uint256[]",
                    "name": "values",
                    "type": "uint256[]"
                },
                {
                    "internalType": "bytes",
                    "name": "data",
                    "type": "bytes"
                }
            ],
            "name": "safeBatchTransferFrom",
            "outputs": [],
            "stateMutability": "nonpayable",
            "type": "function"
        },
        {
            "inputs": [
                {
                    "internalType": "address",
                    "name": "from",
                    "type": "address"
                },
                {
                    "internalType": "address",
                    "name": "to",
                    "type": "address"
                },
                {
                    "internalType": "uint256",
                    "name": "id",
                    "type": "uint256"
                },
                {
                    "internalType": "uint256",
                    "name": "value",
                    "type": "uint256"
                },
                {
                    "internalType": "bytes",
                    "name": "data",
                    "type": "bytes"
                }
            ],
            "name": "safeTransferFrom",
            "outputs": [],
            "stateMutability": "nonpayable",
            "type": "function"
        },
        {
            "inputs": [
                {
                    "internalType": "address",
                    "name": "operator",
                    "type": "address"
                },
                {
                    "internalType": "bool",
                    "name": "approved",
                    "type": "bool"
                }
            ],
            "name": "setApprovalForAll",
            "outputs": [],
            "stateMutability": "nonpayable",
            "type": "function"
        },
        {
            "inputs": [
                {
                    "internalType": "uint256",
                    "name": "_maxCollections",
                    "type": "uint256"
                }
            ],
            "name": "setMaxCollections",
            "outputs": [],
            "stateMutability": "nonpayable",
            "type": "function"
        },
        {
            "inputs": [
                {
                    "internalType": "uint256",
                    "name": "_price",
                    "type": "uint256"
                }
            ],
            "name": "setPrice",
            "outputs": [],
            "stateMutability": "nonpayable",
            "type": "function"
        },
        {
            "inputs": [
                {
                    "internalType": "uint256",
                    "name": "_poolId",
                    "type": "uint256"
                }
            ],
            "name": "skimPool",
            "outputs": [],
            "stateMutability": "nonpayable",
            "type": "function"
        },
        {
            "inputs": [
                {
                    "internalType": "uint256",
                    "name": "_zodiakChoice",
                    "type": "uint256"
                }
            ],
            "name": "spinTheWheel",
            "outputs": [
                {
                    "internalType": "bool",
                    "name": "win",
                    "type": "bool"
                }
            ],
            "stateMutability": "nonpayable",
            "type": "function"
        },
        {
            "inputs": [
                {
                    "internalType": "uint256",
                    "name": "_amount",
                    "type": "uint256"
                }
            ],
            "name": "summonLuck",
            "outputs": [],
            "stateMutability": "payable",
            "type": "function"
        },
        {
            "inputs": [
                {
                    "internalType": "bytes4",
                    "name": "interfaceId",
                    "type": "bytes4"
                }
            ],
            "name": "supportsInterface",
            "outputs": [
                {
                    "internalType": "bool",
                    "name": "",
                    "type": "bool"
                }
            ],
            "stateMutability": "view",
            "type": "function"
        },
        {
            "inputs": [],
            "name": "tallyPool",
            "outputs": [],
            "stateMutability": "nonpayable",
            "type": "function"
        },
        {
            "inputs": [
                {
                    "internalType": "uint256",
                    "name": "tokenId",
                    "type": "uint256"
                }
            ],
            "name": "uri",
            "outputs": [
                {
                    "internalType": "string",
                    "name": "",
                    "type": "string"
                }
            ],
            "stateMutability": "view",
            "type": "function"
        },
        {
            "inputs": [
                {
                    "internalType": "address",
                    "name": "user",
                    "type": "address"
                },
                {
                    "internalType": "uint256",
                    "name": "poolId",
                    "type": "uint256"
                },
                {
                    "internalType": "uint256",
                    "name": "",
                    "type": "uint256"
                }
            ],
            "name": "userWinningTickets",
            "outputs": [
                {
                    "internalType": "uint256",
                    "name": "",
                    "type": "uint256"
                }
            ],
            "stateMutability": "view",
            "type": "function"
        },
        {
            "inputs": [
                {
                    "internalType": "uint256",
                    "name": "tokenId",
                    "type": "uint256"
                },
                {
                    "internalType": "address",
                    "name": "_from",
                    "type": "address"
                },
                {
                    "internalType": "uint256",
                    "name": "_amount",
                    "type": "uint256"
                }
            ],
            "name": "voidRelease",
            "outputs": [],
            "stateMutability": "nonpayable",
            "type": "function"
        },
        {
            "inputs": [
                {
                    "internalType": "uint256",
                    "name": "",
                    "type": "uint256"
                }
            ],
            "name": "zodiakBonuses",
            "outputs": [
                {
                    "internalType": "uint16",
                    "name": "strength",
                    "type": "uint16"
                },
                {
                    "internalType": "uint16",
                    "name": "agility",
                    "type": "uint16"
                },
                {
                    "internalType": "uint16",
                    "name": "intelligence",
                    "type": "uint16"
                },
                {
                    "internalType": "uint16",
                    "name": "vitality",
                    "type": "uint16"
                },
                {
                    "internalType": "uint16",
                    "name": "luck",
                    "type": "uint16"
                }
            ],
            "stateMutability": "view",
            "type": "function"
        }
    ],
    "bytecode": "60e06040525f60c0908152600390610017908261016a565b506013600755600c600855662386f26fc10000600955348015610038575f80fd5b50604051612fff380380612fff83398101604081905261005791610244565b60408051808201909152601681527f68747470733a2f2f7a6f6469616b6e66742e636f6d2f0000000000000000000060208201528281610096816100c2565b50600580546001600160a01b0319166001600160a01b039283161790559190911660a052506102759050565b60026100ce828261016a565b5050565b634e487b7160e01b5f52604160045260245ffd5b600181811c908216806100fa57607f821691505b60208210810361011857634e487b7160e01b5f52602260045260245ffd5b50919050565b601f82111561016557805f5260205f20601f840160051c810160208510156101435750805b601f840160051c820191505b81811015610162575f815560010161014f565b50505b505050565b81516001600160401b03811115610183576101836100d2565b6101978161019184546100e6565b8461011e565b602080601f8311600181146101ca575f84156101b35750858301515b5f19600386901b1c1916600185901b178555610221565b5f85815260208120601f198616915b828110156101f8578886015182559484019460019091019084016101d9565b508582101561021557878501515f19600388901b60f8161c191681555b505060018460011b0185555b505050505050565b80516001600160a01b038116811461023f575f80fd5b919050565b5f8060408385031215610255575f80fd5b61025e83610229565b915061026c60208401610229565b90509250929050565b60805160a051612d696102965f395f61199101525f61046d0152612d695ff3fe608060405260043610610146575f3560e01c8063571ecec9116100b3578063a6bf31811161006d578063a6bf31811461045c578063cc866375146104a7578063dfd863ca146104bb578063e985e9c5146104da578063eb46eb23146104f9578063f242432a14610518575f80fd5b8063571ecec9146103b95780635fd6bfbd146103d857806391b7f5ed146103eb578063972d6c6d1461040a5780639a06b11314610429578063a22cb4651461043d575f80fd5b806318cb2b811161010457806318cb2b81146102a85780632eb2c2d6146102c75780633845b017146102e657806344ed3f58146103055780634e1273f41461036e57806351c3d1891461039a575f80fd5b8062fdd58e1461014a57806301ffc9a71461017c5780630d0ee140146101ab5780630e89341c1461023c5780631269555f1461026857806317a03ee914610289575b5f80fd5b348015610155575f80fd5b50610169610164366004612320565b610537565b6040519081526020015b60405180910390f35b348015610187575f80fd5b5061019b61019636600461235d565b61055e565b6040519015158152602001610173565b3480156101b6575f80fd5b506102076101c5366004612378565b600a6020525f908152604090205461ffff80821691620100008104821691640100000000820481169166010000000000008104821691600160401b9091041685565b6040805161ffff968716815294861660208601529285169284019290925283166060830152909116608082015260a001610173565b348015610247575f80fd5b5061025b610256366004612378565b6105ad565b60405161017391906123bd565b348015610273575f80fd5b50610287610282366004612378565b610689565b005b348015610294575f80fd5b506102876102a33660046123e0565b6106d6565b3480156102b3575f80fd5b5061019b6102c2366004612378565b6107d8565b3480156102d2575f80fd5b506102876102e1366004612590565b610a25565b3480156102f1575f80fd5b50610287610300366004612633565b610a8c565b348015610310575f80fd5b5061032461031f366004612378565b610b05565b604080519a8b5260208b0199909952978901969096526060880194909452608087019290925260a086015260c085015260e084015261010083015261012082015261014001610173565b348015610379575f80fd5b5061038d6103883660046126f0565b610b64565b60405161017391906127e4565b3480156103a5575f80fd5b506102876103b4366004612378565b610c2f565b3480156103c4575f80fd5b506102876103d33660046127f6565b610c71565b6102876103e6366004612378565b610d51565b3480156103f6575f80fd5b50610287610405366004612378565b610e20565b348015610415575f80fd5b50610169610424366004612378565b610e64565b348015610434575f80fd5b50610287611374565b348015610448575f80fd5b50610287610457366004612828565b61161b565b348015610467575f80fd5b5061048f7f000000000000000000000000000000000000000000000000000000000000000081565b6040516001600160a01b039091168152602001610173565b3480156104b2575f80fd5b50610287611626565b3480156104c6575f80fd5b506101696104d5366004612861565b6119dd565b3480156104e5575f80fd5b5061019b6104f4366004612891565b611a0a565b348015610504575f80fd5b506102876105133660046128c2565b611a37565b348015610523575f80fd5b506102876105323660046128f4565b611a42565b5f818152602081815260408083206001600160a01b03861684529091529020545b92915050565b5f6001600160e01b03198216636cdb3d1360e11b148061058e57506001600160e01b031982166303a24d0760e21b145b8061055857506301ffc9a760e01b6001600160e01b0319831614610558565b5f818152600460205260408120805460609291906105ca90612954565b80601f01602080910402602001604051908101604052809291908181526020018280546105f690612954565b80156106415780601f1061061857610100808354040283529160200191610641565b820191905f5260205f20905b81548152906001019060200180831161062457829003601f168201915b505050505090505f81511161065e5761065983611aa1565b610682565b600381604051602001610672929190612986565b6040516020818303038152906040525b9392505050565b6006546001600160a01b03163314806106ac57506005546001600160a01b031633145b6106d15760405162461bcd60e51b81526004016106c890612a07565b60405180910390fd5b600755565b6006546001600160a01b03163314806106f957506005546001600160a01b031633145b6107155760405162461bcd60e51b81526004016106c890612a07565b6040805160a08101825261ffff9687168152948616602080870191825294871686830190815293871660608701908152928716608087019081525f988952600a909552962093518454965192519151935190861663ffffffff199097169690961762010000928616929092029190911767ffffffff0000000019166401000000009185169190910267ffff0000000000001916176601000000000000918416919091021769ffff00000000000000001916600160401b9390921692909202179055565b600c80545f91906107eb90600190612a64565b815481106107fb576107fb612a77565b905f5260205f2090600f02016001015442106108595760405162461bcd60e51b815260206004820152601960248201527f43616e6e6f74207370696e2074686520776865656c207965740000000000000060448201526064016106c8565b6001610865335f610537565b10156108835760405162461bcd60e51b81526004016106c890612a8b565b5f821180156108925750600d82105b6108cb5760405162461bcd60e51b815260206004820152600a602482015269125b9d985b1a59081a5960b21b60448201526064016106c8565b600c8054662386f26fc1000091906108e590600190612a64565b815481106108f5576108f5612a77565b905f5260205f2090600f02016002015f8282546109129190612ab9565b9091555050604080514260208201526bffffffffffffffffffffffff193360601b1691810191909152605481018390525f90606590607401604051602081830303815290604052805190602001205f1c61096c9190612ae0565b9050600c811015610a10576109835f600d33610c71565b600c805461099390600190612a64565b815481106109a3576109a3612a77565b5f918252602082206003600f90920201018054916109c083612af3565b9091555050600c80546109d590600190612a64565b815481106109e5576109e5612a77565b5f91825260208220600e600f9092020101805491610a0283612af3565b919050555060019150610a1f565b610a1b5f8433610c71565b5f91505b50919050565b336001600160a01b0386168114801590610a465750610a448682611a0a565b155b15610a775760405163711bec9160e11b81526001600160a01b038083166004830152871660248201526044016106c8565b610a848686868686611b33565b505050505050565b6006546001600160a01b0316331480610aaf57506005546001600160a01b031633145b610acb5760405162461bcd60e51b81526004016106c890612a07565b5f5b8151811015610b0157610af981838381518110610aec57610aec612a77565b6020026020010151611b98565b600101610acd565b5050565b600c8181548110610b14575f80fd5b905f5260205f2090600f02015f91509050805f01549080600101549080600201549080600301549080600401549080600501549080600601549080600701549080600801549080600e015490508a565b60608151835114610b955781518351604051635b05999160e01b8152600481019290925260248201526044016106c8565b5f835167ffffffffffffffff811115610bb057610bb0612449565b604051908082528060200260200182016040528015610bd9578160200160208202803683370190505b5090505f5b8451811015610c2757602080820286010151610c0290602080840287010151610537565b828281518110610c1457610c14612a77565b6020908102919091010152600101610bde565b509392505050565b6006546001600160a01b0316331480610c5257506005546001600160a01b031633145b610c6e5760405162461bcd60e51b81526004016106c890612a07565b50565b6006546001600160a01b0316331480610c9457506005546001600160a01b031633145b610cb05760405162461bcd60e51b81526004016106c890612a07565b6001610cbc8285610537565b1015610cda5760405162461bcd60e51b81526004016106c890612a8b565b60075483108015610cec575060075482105b610d255760405162461bcd60e51b815260206004820152600a602482015269125b9d985b1a59081a5960b21b60448201526064016106c8565b610d3181846001611bf4565b610d4c8183600160405180602001604052805f815250611c5a565b505050565b80600954610d5f9190612b0b565b341015610da15760405162461bcd60e51b815260206004820152601060248201526f125b98dbdc9c9958dd08185b5bdd5b9d60821b60448201526064016106c8565b600a81610dae335f610537565b610db89190612ab9565b1115610e065760405162461bcd60e51b815260206004820152601b60248201527f596f752063616e206f6e6c79206d696e7420313020746f6b656e73000000000060448201526064016106c8565b610c6e335f8360405180602001604052805f815250611c5a565b6006546001600160a01b0316331480610e4357506005546001600160a01b031633145b610e5f5760405162461bcd60e51b81526004016106c890612a07565b600955565b5f80610e7133600d610537565b11610e8e5760405162461bcd60e51b81526004016106c890612a8b565b5f60644233604051602001610ece92919091825260601b6bffffffffffffffffffffffff19166020820152655a6f6469616b60d01b6034820152603a0190565b604051602081830303815290604052805190602001205f1c610ef09190612ae0565b9050600a8111610fc357600c8381548110610f0d57610f0d612a77565b5f918252602082206009600f90920201010154600103610fba57335f908152600b60205260408120600c54600e9450909190610f4b90600190612a64565b81526020019081526020015f205f60058110610f6957610f69612a77565b018054905f610f7783612af3565b9190505550600c8381548110610f8f57610f8f612a77565b5f918252602082206009600f9092020101905b018054905f610fb083612b22565b9190505550611333565b600f9150611333565b60148111158015610fd45750600a81115b80610fdf575081600f145b156110a657600c8381548110610ff757610ff7612a77565b905f5260205f2090600f020160090160016005811061101857611018612a77565b015460010361109d57335f908152600b60205260408120600c54600f945090919061104590600190612a64565b815260208101919091526040015f206001018054905f61106483612af3565b9190505550600c838154811061107c5761107c612a77565b905f5260205f2090600f0201600901600160058110610fa257610fa2612a77565b60109150611333565b601e81111580156110b75750601481115b806110c25750816010145b1561118957600c83815481106110da576110da612a77565b905f5260205f2090600f02016009016002600581106110fb576110fb612a77565b015460010361118057335f908152600b60205260408120600c546010945090919061112890600190612a64565b815260208101919091526040015f206002018054905f61114783612af3565b9190505550600c838154811061115f5761115f612a77565b905f5260205f2090600f0201600901600260058110610fa257610fa2612a77565b60119150611333565b603c811115801561119a5750601e81115b15611261575f600c84815481106111b3576111b3612a77565b905f5260205f2090600f02016009016003600581106111d4576111d4612a77565b0154111561125857335f908152600b60205260408120600c546011945090919061120090600190612a64565b815260208101919091526040015f206003018054905f61121f83612af3565b9190505550600c838154811061123757611237612a77565b905f5260205f2090600f0201600901600360058110610fa257610fa2612a77565b60129150611333565b603c8111806112705750816012145b15611333575f600c848154811061128957611289612a77565b905f5260205f2090600f02016009016003600581106112aa576112aa612a77565b0154111561132e57335f908152600b60205260408120600c54601294509091906112d690600190612a64565b815260208101919091526040015f206004018054905f6112f583612af3565b9190505550600c838154811061130d5761130d612a77565b905f5260205f2090600f0201600901600460058110610fa257610fa2612a77565b601191505b600c838154811061134657611346612a77565b5f91825260208220600e600f909202010180549161136383612b22565b9190505550610a1f600d8333610c71565b6006546001600160a01b031633148061139757506005546001600160a01b031633145b6113b35760405162461bcd60e51b81526004016106c890612a07565b600c80546113c390600190612a64565b815481106113d3576113d3612a77565b905f5260205f2090600f02016001015442116114315760405162461bcd60e51b815260206004820152601a60248201527f43616e6e6f7420637265617465206e657720706f6f6c2079657400000000000060448201526064016106c8565b61143961223f565b4280825261144990612a30612ab9565b60208201908152600c80546001810182555f919091528251600f9091027fdf6966c971051c3d54ec59162606531493a51404a002842f56009d7e5cf4a8c7810191825591517fdf6966c971051c3d54ec59162606531493a51404a002842f56009d7e5cf4a8c883015560408301517fdf6966c971051c3d54ec59162606531493a51404a002842f56009d7e5cf4a8c983015560608301517fdf6966c971051c3d54ec59162606531493a51404a002842f56009d7e5cf4a8ca83015560808301517fdf6966c971051c3d54ec59162606531493a51404a002842f56009d7e5cf4a8cb83015560a08301517fdf6966c971051c3d54ec59162606531493a51404a002842f56009d7e5cf4a8cc83015560c08301517fdf6966c971051c3d54ec59162606531493a51404a002842f56009d7e5cf4a8cd83015560e08301517fdf6966c971051c3d54ec59162606531493a51404a002842f56009d7e5cf4a8ce8301556101008301517fdf6966c971051c3d54ec59162606531493a51404a002842f56009d7e5cf4a8cf830155610120830151839261160a917fdf6966c971051c3d54ec59162606531493a51404a002842f56009d7e5cf4a8d0909101906005612295565b5061014082015181600e0155505050565b610b01338383611cb5565b6006546001600160a01b031633148061164957506005546001600160a01b031633145b6116655760405162461bcd60e51b81526004016106c890612a07565b600c80545f919061167890600190612a64565b8154811061168857611688612a77565b905f5260205f2090600f0201604051806101600160405290815f8201548152602001600182015481526020016002820154815260200160038201548152602001600482015481526020016005820154815260200160068201548152602001600782015481526020016008820154815260200160098201600580602002604051908101604052809291908260058015611735576020028201915b815481526020019060010190808311611721575b50505050508152602001600e8201548152505090505f600c6001600c8054905061175f9190612a64565b8154811061176f5761176f612a77565b905f5260205f2090600f020190505f60648360400151600a6117919190612b0b565b61179b9190612b37565b90508083604001516117ad9190612a64565b604084018190526002830155602083015142116118045760405162461bcd60e51b815260206004820152601560248201527410d85b9b9bdd081d185b1b1e481c1bdbdb081e595d605a1b60448201526064016106c8565b5f83606001511161184c5760405162461bcd60e51b81526020600482015260126024820152714e6f2077696e6e696e67207469636b65747360701b60448201526064016106c8565b60648360400151601961185f9190612b0b565b6118699190612b37565b6004830155604083015160649061188190600a612b0b565b61188b9190612b37565b82600501819055506064836040015160056118a69190612b0b565b6118b09190612b37565b600683015560408301516064906118c8906014612b0b565b6118d29190612b37565b600783015560408301516064906118ea906028612b0b565b6118f49190612b37565b82600801819055506040518060a0016040528060018152602001600181526020016001815260200160646002866060015161192f9190612a64565b61193a90601e612b0b565b6119449190612b37565b815260200160646001866060015161195c9190612a64565b611967906046612b0b565b6119719190612b37565b90526119839060098401906005612295565b506040516001600160a01b037f0000000000000000000000000000000000000000000000000000000000000000169082156108fc029083905f818181858888f193505050501580156119d7573d5f803e3d5ffd5b50505050565b600b602052825f5260405f20602052815f5260405f208160058110611a00575f80fd5b0154925083915050565b6001600160a01b039182165f90815260016020908152604080832093909416825291909152205460ff1690565b610d4c828483611bf4565b336001600160a01b0386168114801590611a635750611a618682611a0a565b155b15611a945760405163711bec9160e11b81526001600160a01b038083166004830152871660248201526044016106c8565b610a848686868686611d49565b606060028054611ab090612954565b80601f0160208091040260200160405190810160405280929190818152602001828054611adc90612954565b8015611b275780601f10611afe57610100808354040283529160200191611b27565b820191905f5260205f20905b815481529060010190602001808311611b0a57829003601f168201915b50505050509050919050565b6001600160a01b038416611b5c57604051632bfa23e760e11b81525f60048201526024016106c8565b6001600160a01b038516611b8457604051626a0d4560e21b81525f60048201526024016106c8565b611b918585858585611dd5565b5050505050565b5f828152600460205260409020611baf8282612b8e565b50817f6bb7ff708619ba0610cba295a58592e0451dee2622938c8755667688daf3529b611bdb846105ad565b604051611be891906123bd565b60405180910390a25050565b6001600160a01b038316611c1c57604051626a0d4560e21b81525f60048201526024016106c8565b604080516001808252602082018590528183019081526060820184905260a082019092525f60808201818152919291611b9191879185908590611dd5565b6001600160a01b038416611c8357604051632bfa23e760e11b81525f60048201526024016106c8565b60408051600180825260208201869052818301908152606082018590526080820190925290610a845f87848487611dd5565b6001600160a01b038216611cdd5760405162ced3e160e81b81525f60048201526024016106c8565b6001600160a01b038381165f81815260016020908152604080832094871680845294825291829020805460ff191686151590811790915591519182527f17307eab39ab6107e8899845ad3d59bd9653f200f220920489ca2b5937696c31910160405180910390a3505050565b6001600160a01b038416611d7257604051632bfa23e760e11b81525f60048201526024016106c8565b6001600160a01b038516611d9a57604051626a0d4560e21b81525f60048201526024016106c8565b60408051600180825260208201869052818301908152606082018590526080820190925290611dcc8787848487611dd5565b50505050505050565b611de185858585611e28565b6001600160a01b03841615611b915782513390600103611e1a5760208481015190840151611e13838989858589612037565b5050610a84565b610a84818787878787612158565b8051825114611e575781518151604051635b05999160e01b8152600481019290925260248201526044016106c8565b335f5b8351811015611f59576020818102858101820151908501909101516001600160a01b03881615611f0b575f828152602081815260408083206001600160a01b038c16845290915290205481811015611ee5576040516303dee4c560e01b81526001600160a01b038a1660048201526024810182905260448101839052606481018490526084016106c8565b5f838152602081815260408083206001600160a01b038d16845290915290209082900390555b6001600160a01b03871615611f4f575f828152602081815260408083206001600160a01b038b16845290915281208054839290611f49908490612ab9565b90915550505b5050600101611e5a565b508251600103611fd95760208301515f906020840151909150856001600160a01b0316876001600160a01b0316846001600160a01b03167fc3d58168c5ae7397731d063d5bbf3d657854427343f4c083240f7aacaa2d0f628585604051611fca929190918252602082015260400190565b60405180910390a45050611b91565b836001600160a01b0316856001600160a01b0316826001600160a01b03167f4a39dc06d4c0dbc64b70af90fd698a233a518aa5d07e595d983b8c0526c8f7fb8686604051612028929190612c4a565b60405180910390a45050505050565b6001600160a01b0384163b15610a845760405163f23a6e6160e01b81526001600160a01b0385169063f23a6e619061207b9089908990889088908890600401612c77565b6020604051808303815f875af19250505080156120b5575060408051601f3d908101601f191682019092526120b291810190612cbb565b60015b61211c573d8080156120e2576040519150601f19603f3d011682016040523d82523d5f602084013e6120e7565b606091505b5080515f0361211457604051632bfa23e760e11b81526001600160a01b03861660048201526024016106c8565b805181602001fd5b6001600160e01b0319811663f23a6e6160e01b14611dcc57604051632bfa23e760e11b81526001600160a01b03861660048201526024016106c8565b6001600160a01b0384163b15610a845760405163bc197c8160e01b81526001600160a01b0385169063bc197c819061219c9089908990889088908890600401612cd6565b6020604051808303815f875af19250505080156121d6575060408051601f3d908101601f191682019092526121d391810190612cbb565b60015b612203573d8080156120e2576040519150601f19603f3d011682016040523d82523d5f602084013e6120e7565b6001600160e01b0319811663bc197c8160e01b14611dcc57604051632bfa23e760e11b81526001600160a01b03861660048201526024016106c8565b6040518061016001604052805f81526020015f81526020015f81526020015f81526020015f81526020015f81526020015f81526020015f81526020015f81526020016122896122d3565b81526020015f81525090565b82600581019282156122c3579160200282015b828111156122c35782518255916020019190600101906122a8565b506122cf9291506122f1565b5090565b6040518060a001604052806005906020820280368337509192915050565b5b808211156122cf575f81556001016122f2565b80356001600160a01b038116811461231b575f80fd5b919050565b5f8060408385031215612331575f80fd5b61233a83612305565b946020939093013593505050565b6001600160e01b031981168114610c6e575f80fd5b5f6020828403121561236d575f80fd5b813561068281612348565b5f60208284031215612388575f80fd5b5035919050565b5f81518084528060208401602086015e5f602082860101526020601f19601f83011685010191505092915050565b602081525f610682602083018461238f565b803561ffff8116811461231b575f80fd5b5f805f805f8060c087890312156123f5575f80fd5b86359550612405602088016123cf565b9450612413604088016123cf565b9350612421606088016123cf565b925061242f608088016123cf565b915061243d60a088016123cf565b90509295509295509295565b634e487b7160e01b5f52604160045260245ffd5b604051601f8201601f1916810167ffffffffffffffff8111828210171561248657612486612449565b604052919050565b5f67ffffffffffffffff8211156124a7576124a7612449565b5060051b60200190565b5f82601f8301126124c0575f80fd5b813560206124d56124d08361248e565b61245d565b8083825260208201915060208460051b8701019350868411156124f6575f80fd5b602086015b8481101561251257803583529183019183016124fb565b509695505050505050565b5f67ffffffffffffffff83111561253657612536612449565b612549601f8401601f191660200161245d565b905082815283838301111561255c575f80fd5b828260208301375f602084830101529392505050565b5f82601f830112612581575f80fd5b6106828383356020850161251d565b5f805f805f60a086880312156125a4575f80fd5b6125ad86612305565b94506125bb60208701612305565b9350604086013567ffffffffffffffff808211156125d7575f80fd5b6125e389838a016124b1565b945060608801359150808211156125f8575f80fd5b61260489838a016124b1565b93506080880135915080821115612619575f80fd5b5061262688828901612572565b9150509295509295909350565b5f6020808385031215612644575f80fd5b823567ffffffffffffffff8082111561265b575f80fd5b818501915085601f83011261266e575f80fd5b813561267c6124d08261248e565b81815260059190911b8301840190848101908883111561269a575f80fd5b8585015b838110156126e3578035858111156126b4575f80fd5b8601603f81018b136126c4575f80fd5b6126d58b898301356040840161251d565b84525091860191860161269e565b5098975050505050505050565b5f8060408385031215612701575f80fd5b823567ffffffffffffffff80821115612718575f80fd5b818501915085601f83011261272b575f80fd5b8135602061273b6124d08361248e565b82815260059290921b84018101918181019089841115612759575f80fd5b948201945b8386101561277e5761276f86612305565b8252948201949082019061275e565b96505086013592505080821115612793575f80fd5b506127a0858286016124b1565b9150509250929050565b5f815180845260208085019450602084015f5b838110156127d9578151875295820195908201906001016127bd565b509495945050505050565b602081525f61068260208301846127aa565b5f805f60608486031215612808575f80fd5b833592506020840135915061281f60408501612305565b90509250925092565b5f8060408385031215612839575f80fd5b61284283612305565b915060208301358015158114612856575f80fd5b809150509250929050565b5f805f60608486031215612873575f80fd5b61287c84612305565b95602085013595506040909401359392505050565b5f80604083850312156128a2575f80fd5b6128ab83612305565b91506128b960208401612305565b90509250929050565b5f805f606084860312156128d4575f80fd5b833592506128e460208501612305565b9150604084013590509250925092565b5f805f805f60a08688031215612908575f80fd5b61291186612305565b945061291f60208701612305565b93506040860135925060608601359150608086013567ffffffffffffffff811115612948575f80fd5b61262688828901612572565b600181811c9082168061296857607f821691505b602082108103610a1f57634e487b7160e01b5f52602260045260245ffd5b5f80845461299381612954565b600182811680156129ab57600181146129c0576129ec565b60ff19841687528215158302870194506129ec565b885f526020805f205f5b858110156129e35781548a8201529084019082016129ca565b50505082870194505b5050505083518060208601835e5f9101908152949350505050565b60208082526029908201527f4f6e6c7920436f736d696320706f776572732063616e2063616c6c207468697360408201526810333ab731ba34b7b760b91b606082015260800190565b634e487b7160e01b5f52601160045260245ffd5b8181038181111561055857610558612a50565b634e487b7160e01b5f52603260045260245ffd5b602080825260149082015273496e73756666696369656e742062616c616e636560601b604082015260600190565b8082018082111561055857610558612a50565b634e487b7160e01b5f52601260045260245ffd5b5f82612aee57612aee612acc565b500690565b5f60018201612b0457612b04612a50565b5060010190565b808202811582820484141761055857610558612a50565b5f81612b3057612b30612a50565b505f190190565b5f82612b4557612b45612acc565b500490565b601f821115610d4c57805f5260205f20601f840160051c81016020851015612b6f5750805b601f840160051c820191505b81811015611b91575f8155600101612b7b565b815167ffffffffffffffff811115612ba857612ba8612449565b612bbc81612bb68454612954565b84612b4a565b602080601f831160018114612bef575f8415612bd85750858301515b5f19600386901b1c1916600185901b178555610a84565b5f85815260208120601f198616915b82811015612c1d57888601518255948401946001909101908401612bfe565b5085821015612c3a57878501515f19600388901b60f8161c191681555b5050505050600190811b01905550565b604081525f612c5c60408301856127aa565b8281036020840152612c6e81856127aa565b95945050505050565b6001600160a01b03868116825285166020820152604081018490526060810183905260a0608082018190525f90612cb09083018461238f565b979650505050505050565b5f60208284031215612ccb575f80fd5b815161068281612348565b6001600160a01b0386811682528516602082015260a0604082018190525f90612d01908301866127aa565b8281036060840152612d1381866127aa565b90508281036080840152612d27818561238f565b9897505050505050505056fea26469706673582212206e131e0c9aeb31321028b15ede249c72773a40ee6e5bdc8fe345ef5c7aeae9f764736f6c63430008190033",
    "sourcePath": "/home/torof/desk/portfolio/zodiak333/src/ZodiakLottery.sol",
    "compiler": {
        "name": "solc",
        "version": "0.8.25+commit.b61c2a91"
    },
    "functionHashes": {
        "ZDK()": "a6bf3181",
        "balanceOf(address,uint256)": "00fdd58e",
        "balanceOfBatch(address[],uint256[])": "4e1273f4",
        "cosmicMutation(uint256,uint256,address)": "571ecec9",
        "cosmicReshape(uint256,uint16,uint16,uint16,uint16,uint16)": "17a03ee9",
        "createPool()": "9a06b113",
        "initURI(string[])": "3845b017",
        "isApprovedForAll(address,address)": "e985e9c5",
        "lotteryPools(uint256)": "44ed3f58",
        "revealPrize(uint256)": "972d6c6d",
        "safeBatchTransferFrom(address,address,uint256[],uint256[],bytes)": "2eb2c2d6",
        "safeTransferFrom(address,address,uint256,uint256,bytes)": "f242432a",
        "setApprovalForAll(address,bool)": "a22cb465",
        "setMaxCollections(uint256)": "1269555f",
        "setPrice(uint256)": "91b7f5ed",
        "skimPool(uint256)": "51c3d189",
        "spinTheWheel(uint256)": "18cb2b81",
        "summonLuck(uint256)": "5fd6bfbd",
        "supportsInterface(bytes4)": "01ffc9a7",
        "tallyPool()": "cc866375",
        "uri(uint256)": "0e89341c",
        "userWinningTickets(address,uint256,uint256)": "dfd863ca",
        "voidRelease(uint256,address,uint256)": "eb46eb23",
        "zodiakBonuses(uint256)": "0d0ee140"
    },
    "gasEstimates": {
        "creation": {
            "codeDepositCost": "2325000",
            "executionCost": "infinite",
            "totalCost": "infinite"
        },
        "external": {
            "ZDK()": "infinite",
            "balanceOf(address,uint256)": "2657",
            "balanceOfBatch(address[],uint256[])": "infinite",
            "cosmicMutation(uint256,uint256,address)": "infinite",
            "cosmicReshape(uint256,uint16,uint16,uint16,uint16,uint16)": "infinite",
            "createPool()": "infinite",
            "initURI(string[])": "infinite",
            "isApprovedForAll(address,address)": "infinite",
            "lotteryPools(uint256)": "23867",
            "revealPrize(uint256)": "infinite",
            "safeBatchTransferFrom(address,address,uint256[],uint256[],bytes)": "infinite",
            "safeTransferFrom(address,address,uint256,uint256,bytes)": "infinite",
            "setApprovalForAll(address,bool)": "26789",
            "setMaxCollections(uint256)": "26719",
            "setPrice(uint256)": "26674",
            "skimPool(uint256)": "4789",
            "spinTheWheel(uint256)": "infinite",
            "summonLuck(uint256)": "infinite",
            "supportsInterface(bytes4)": "575",
            "tallyPool()": "infinite",
            "uri(uint256)": "infinite",
            "userWinningTickets(address,uint256,uint256)": "2721",
            "voidRelease(uint256,address,uint256)": "infinite",
            "zodiakBonuses(uint256)": "2715"
        }
    }
}