{
    "contractName": "ZodiakLottery",
    "abi": [
        {
            "inputs": [
                {
                    "internalType": "address",
                    "name": "_theMighty",
                    "type": "address"
                },
                {
                    "internalType": "address",
                    "name": "_cosmicVault",
                    "type": "address"
                }
            ],
            "stateMutability": "nonpayable",
            "type": "constructor"
        },
        {
            "inputs": [
                {
                    "internalType": "address",
                    "name": "sender",
                    "type": "address"
                },
                {
                    "internalType": "uint256",
                    "name": "balance",
                    "type": "uint256"
                },
                {
                    "internalType": "uint256",
                    "name": "needed",
                    "type": "uint256"
                },
                {
                    "internalType": "uint256",
                    "name": "tokenId",
                    "type": "uint256"
                }
            ],
            "name": "ERC1155InsufficientBalance",
            "type": "error"
        },
        {
            "inputs": [
                {
                    "internalType": "address",
                    "name": "approver",
                    "type": "address"
                }
            ],
            "name": "ERC1155InvalidApprover",
            "type": "error"
        },
        {
            "inputs": [
                {
                    "internalType": "uint256",
                    "name": "idsLength",
                    "type": "uint256"
                },
                {
                    "internalType": "uint256",
                    "name": "valuesLength",
                    "type": "uint256"
                }
            ],
            "name": "ERC1155InvalidArrayLength",
            "type": "error"
        },
        {
            "inputs": [
                {
                    "internalType": "address",
                    "name": "operator",
                    "type": "address"
                }
            ],
            "name": "ERC1155InvalidOperator",
            "type": "error"
        },
        {
            "inputs": [
                {
                    "internalType": "address",
                    "name": "receiver",
                    "type": "address"
                }
            ],
            "name": "ERC1155InvalidReceiver",
            "type": "error"
        },
        {
            "inputs": [
                {
                    "internalType": "address",
                    "name": "sender",
                    "type": "address"
                }
            ],
            "name": "ERC1155InvalidSender",
            "type": "error"
        },
        {
            "inputs": [
                {
                    "internalType": "address",
                    "name": "operator",
                    "type": "address"
                },
                {
                    "internalType": "address",
                    "name": "owner",
                    "type": "address"
                }
            ],
            "name": "ERC1155MissingApprovalForAll",
            "type": "error"
        },
        {
            "anonymous": false,
            "inputs": [
                {
                    "indexed": true,
                    "internalType": "address",
                    "name": "account",
                    "type": "address"
                },
                {
                    "indexed": true,
                    "internalType": "address",
                    "name": "operator",
                    "type": "address"
                },
                {
                    "indexed": false,
                    "internalType": "bool",
                    "name": "approved",
                    "type": "bool"
                }
            ],
            "name": "ApprovalForAll",
            "type": "event"
        },
        {
            "anonymous": false,
            "inputs": [
                {
                    "indexed": true,
                    "internalType": "address",
                    "name": "operator",
                    "type": "address"
                },
                {
                    "indexed": true,
                    "internalType": "address",
                    "name": "from",
                    "type": "address"
                },
                {
                    "indexed": true,
                    "internalType": "address",
                    "name": "to",
                    "type": "address"
                },
                {
                    "indexed": false,
                    "internalType": "uint256[]",
                    "name": "ids",
                    "type": "uint256[]"
                },
                {
                    "indexed": false,
                    "internalType": "uint256[]",
                    "name": "values",
                    "type": "uint256[]"
                }
            ],
            "name": "TransferBatch",
            "type": "event"
        },
        {
            "anonymous": false,
            "inputs": [
                {
                    "indexed": true,
                    "internalType": "address",
                    "name": "operator",
                    "type": "address"
                },
                {
                    "indexed": true,
                    "internalType": "address",
                    "name": "from",
                    "type": "address"
                },
                {
                    "indexed": true,
                    "internalType": "address",
                    "name": "to",
                    "type": "address"
                },
                {
                    "indexed": false,
                    "internalType": "uint256",
                    "name": "id",
                    "type": "uint256"
                },
                {
                    "indexed": false,
                    "internalType": "uint256",
                    "name": "value",
                    "type": "uint256"
                }
            ],
            "name": "TransferSingle",
            "type": "event"
        },
        {
            "anonymous": false,
            "inputs": [
                {
                    "indexed": false,
                    "internalType": "string",
                    "name": "value",
                    "type": "string"
                },
                {
                    "indexed": true,
                    "internalType": "uint256",
                    "name": "id",
                    "type": "uint256"
                }
            ],
            "name": "URI",
            "type": "event"
        },
        {
            "inputs": [],
            "name": "ZDK",
            "outputs": [
                {
                    "internalType": "contract ZodiakNFT",
                    "name": "",
                    "type": "address"
                }
            ],
            "stateMutability": "view",
            "type": "function"
        },
        {
            "inputs": [
                {
                    "internalType": "address",
                    "name": "account",
                    "type": "address"
                },
                {
                    "internalType": "uint256",
                    "name": "id",
                    "type": "uint256"
                }
            ],
            "name": "balanceOf",
            "outputs": [
                {
                    "internalType": "uint256",
                    "name": "",
                    "type": "uint256"
                }
            ],
            "stateMutability": "view",
            "type": "function"
        },
        {
            "inputs": [
                {
                    "internalType": "address[]",
                    "name": "accounts",
                    "type": "address[]"
                },
                {
                    "internalType": "uint256[]",
                    "name": "ids",
                    "type": "uint256[]"
                }
            ],
            "name": "balanceOfBatch",
            "outputs": [
                {
                    "internalType": "uint256[]",
                    "name": "",
                    "type": "uint256[]"
                }
            ],
            "stateMutability": "view",
            "type": "function"
        },
        {
            "inputs": [
                {
                    "internalType": "uint256",
                    "name": "_idFrom",
                    "type": "uint256"
                },
                {
                    "internalType": "uint256",
                    "name": "_idTo",
                    "type": "uint256"
                },
                {
                    "internalType": "address",
                    "name": "_owner",
                    "type": "address"
                }
            ],
            "name": "cosmicMutation",
            "outputs": [],
            "stateMutability": "nonpayable",
            "type": "function"
        },
        {
            "inputs": [
                {
                    "internalType": "uint256",
                    "name": "_id",
                    "type": "uint256"
                },
                {
                    "internalType": "uint16",
                    "name": "_strength",
                    "type": "uint16"
                },
                {
                    "internalType": "uint16",
                    "name": "_agility",
                    "type": "uint16"
                },
                {
                    "internalType": "uint16",
                    "name": "_intelligence",
                    "type": "uint16"
                },
                {
                    "internalType": "uint16",
                    "name": "_vitality",
                    "type": "uint16"
                },
                {
                    "internalType": "uint16",
                    "name": "_luck",
                    "type": "uint16"
                }
            ],
            "name": "cosmicReshape",
            "outputs": [],
            "stateMutability": "nonpayable",
            "type": "function"
        },
        {
            "inputs": [],
            "name": "createPool",
            "outputs": [],
            "stateMutability": "nonpayable",
            "type": "function"
        },
        {
            "inputs": [
                {
                    "internalType": "string[]",
                    "name": "_uris",
                    "type": "string[]"
                }
            ],
            "name": "initURI",
            "outputs": [],
            "stateMutability": "nonpayable",
            "type": "function"
        },
        {
            "inputs": [
                {
                    "internalType": "address",
                    "name": "account",
                    "type": "address"
                },
                {
                    "internalType": "address",
                    "name": "operator",
                    "type": "address"
                }
            ],
            "name": "isApprovedForAll",
            "outputs": [
                {
                    "internalType": "bool",
                    "name": "",
                    "type": "bool"
                }
            ],
            "stateMutability": "view",
            "type": "function"
        },
        {
            "inputs": [
                {
                    "internalType": "uint256",
                    "name": "",
                    "type": "uint256"
                }
            ],
            "name": "lotteryPools",
            "outputs": [
                {
                    "internalType": "uint256",
                    "name": "startTimestamp",
                    "type": "uint256"
                },
                {
                    "internalType": "uint256",
                    "name": "endTimestamp",
                    "type": "uint256"
                },
                {
                    "internalType": "uint256",
                    "name": "pot",
                    "type": "uint256"
                },
                {
                    "internalType": "uint256",
                    "name": "numberOfWinningTickets",
                    "type": "uint256"
                },
                {
                    "internalType": "uint256",
                    "name": "tier1",
                    "type": "uint256"
                },
                {
                    "internalType": "uint256",
                    "name": "tier2",
                    "type": "uint256"
                },
                {
                    "internalType": "uint256",
                    "name": "tier3",
                    "type": "uint256"
                },
                {
                    "internalType": "uint256",
                    "name": "tier4",
                    "type": "uint256"
                },
                {
                    "internalType": "uint256",
                    "name": "tier5",
                    "type": "uint256"
                },
                {
                    "internalType": "uint256",
                    "name": "prize4Winners",
                    "type": "uint256"
                },
                {
                    "internalType": "uint256",
                    "name": "prize5Winners",
                    "type": "uint256"
                },
                {
                    "internalType": "uint256",
                    "name": "unusedPrizeTickets",
                    "type": "uint256"
                }
            ],
            "stateMutability": "view",
            "type": "function"
        },
        {
            "inputs": [
                {
                    "internalType": "uint256",
                    "name": "_poolId",
                    "type": "uint256"
                }
            ],
            "name": "revealPrize",
            "outputs": [
                {
                    "internalType": "uint256",
                    "name": "prizeTokenId",
                    "type": "uint256"
                }
            ],
            "stateMutability": "nonpayable",
            "type": "function"
        },
        {
            "inputs": [
                {
                    "internalType": "address",
                    "name": "from",
                    "type": "address"
                },
                {
                    "internalType": "address",
                    "name": "to",
                    "type": "address"
                },
                {
                    "internalType": "uint256[]",
                    "name": "ids",
                    "type": "uint256[]"
                },
                {
                    "internalType": "uint256[]",
                    "name": "values",
                    "type": "uint256[]"
                },
                {
                    "internalType": "bytes",
                    "name": "data",
                    "type": "bytes"
                }
            ],
            "name": "safeBatchTransferFrom",
            "outputs": [],
            "stateMutability": "nonpayable",
            "type": "function"
        },
        {
            "inputs": [
                {
                    "internalType": "address",
                    "name": "from",
                    "type": "address"
                },
                {
                    "internalType": "address",
                    "name": "to",
                    "type": "address"
                },
                {
                    "internalType": "uint256",
                    "name": "id",
                    "type": "uint256"
                },
                {
                    "internalType": "uint256",
                    "name": "value",
                    "type": "uint256"
                },
                {
                    "internalType": "bytes",
                    "name": "data",
                    "type": "bytes"
                }
            ],
            "name": "safeTransferFrom",
            "outputs": [],
            "stateMutability": "nonpayable",
            "type": "function"
        },
        {
            "inputs": [
                {
                    "internalType": "address",
                    "name": "operator",
                    "type": "address"
                },
                {
                    "internalType": "bool",
                    "name": "approved",
                    "type": "bool"
                }
            ],
            "name": "setApprovalForAll",
            "outputs": [],
            "stateMutability": "nonpayable",
            "type": "function"
        },
        {
            "inputs": [
                {
                    "internalType": "uint256",
                    "name": "_maxCollections",
                    "type": "uint256"
                }
            ],
            "name": "setMaxCollections",
            "outputs": [],
            "stateMutability": "nonpayable",
            "type": "function"
        },
        {
            "inputs": [
                {
                    "internalType": "uint256",
                    "name": "_price",
                    "type": "uint256"
                }
            ],
            "name": "setPrice",
            "outputs": [],
            "stateMutability": "nonpayable",
            "type": "function"
        },
        {
            "inputs": [
                {
                    "internalType": "uint256",
                    "name": "_zodiakChoice",
                    "type": "uint256"
                }
            ],
            "name": "spinTheWheel",
            "outputs": [
                {
                    "internalType": "bool",
                    "name": "win",
                    "type": "bool"
                }
            ],
            "stateMutability": "nonpayable",
            "type": "function"
        },
        {
            "inputs": [
                {
                    "internalType": "uint256",
                    "name": "_amount",
                    "type": "uint256"
                }
            ],
            "name": "summonLuck",
            "outputs": [],
            "stateMutability": "payable",
            "type": "function"
        },
        {
            "inputs": [
                {
                    "internalType": "bytes4",
                    "name": "interfaceId",
                    "type": "bytes4"
                }
            ],
            "name": "supportsInterface",
            "outputs": [
                {
                    "internalType": "bool",
                    "name": "",
                    "type": "bool"
                }
            ],
            "stateMutability": "view",
            "type": "function"
        },
        {
            "inputs": [],
            "name": "tallyPool",
            "outputs": [],
            "stateMutability": "nonpayable",
            "type": "function"
        },
        {
            "inputs": [
                {
                    "internalType": "uint256",
                    "name": "tokenId",
                    "type": "uint256"
                }
            ],
            "name": "uri",
            "outputs": [
                {
                    "internalType": "string",
                    "name": "",
                    "type": "string"
                }
            ],
            "stateMutability": "view",
            "type": "function"
        },
        {
            "inputs": [
                {
                    "internalType": "address",
                    "name": "user",
                    "type": "address"
                },
                {
                    "internalType": "uint256",
                    "name": "poolId",
                    "type": "uint256"
                },
                {
                    "internalType": "uint256",
                    "name": "",
                    "type": "uint256"
                }
            ],
            "name": "userWinningTickets",
            "outputs": [
                {
                    "internalType": "uint256",
                    "name": "",
                    "type": "uint256"
                }
            ],
            "stateMutability": "view",
            "type": "function"
        },
        {
            "inputs": [
                {
                    "internalType": "uint256",
                    "name": "tokenId",
                    "type": "uint256"
                },
                {
                    "internalType": "address",
                    "name": "_from",
                    "type": "address"
                },
                {
                    "internalType": "uint256",
                    "name": "_amount",
                    "type": "uint256"
                }
            ],
            "name": "voidRelease",
            "outputs": [],
            "stateMutability": "nonpayable",
            "type": "function"
        },
        {
            "inputs": [
                {
                    "internalType": "uint256",
                    "name": "",
                    "type": "uint256"
                }
            ],
            "name": "zodiakBonuses",
            "outputs": [
                {
                    "internalType": "uint16",
                    "name": "strength",
                    "type": "uint16"
                },
                {
                    "internalType": "uint16",
                    "name": "agility",
                    "type": "uint16"
                },
                {
                    "internalType": "uint16",
                    "name": "intelligence",
                    "type": "uint16"
                },
                {
                    "internalType": "uint16",
                    "name": "vitality",
                    "type": "uint16"
                },
                {
                    "internalType": "uint16",
                    "name": "luck",
                    "type": "uint16"
                }
            ],
            "stateMutability": "view",
            "type": "function"
        }
    ],
    "bytecode": "60e06040525f60c0908152600390610017908261016a565b506013600755600c600855662386f26fc10000600955348015610038575f80fd5b5060405161306f38038061306f83398101604081905261005791610244565b60408051808201909152601681527f68747470733a2f2f7a6f6469616b6e66742e636f6d2f0000000000000000000060208201528281610096816100c2565b50600580546001600160a01b0319166001600160a01b039283161790559190911660a052506102759050565b60026100ce828261016a565b5050565b634e487b7160e01b5f52604160045260245ffd5b600181811c908216806100fa57607f821691505b60208210810361011857634e487b7160e01b5f52602260045260245ffd5b50919050565b601f82111561016557805f5260205f20601f840160051c810160208510156101435750805b601f840160051c820191505b81811015610162575f815560010161014f565b50505b505050565b81516001600160401b03811115610183576101836100d2565b6101978161019184546100e6565b8461011e565b602080601f8311600181146101ca575f84156101b35750858301515b5f19600386901b1c1916600185901b178555610221565b5f85815260208120601f198616915b828110156101f8578886015182559484019460019091019084016101d9565b508582101561021557878501515f19600388901b60f8161c191681555b505060018460011b0185555b505050505050565b80516001600160a01b038116811461023f575f80fd5b919050565b5f8060408385031215610255575f80fd5b61025e83610229565b915061026c60208401610229565b90509250929050565b60805160a051612dd96102965f395f6119f501525f6104520152612dd95ff3fe60806040526004361061013b575f3560e01c8063571ecec9116100b3578063a6bf31811161006d578063a6bf318114610441578063cc8663751461048c578063dfd863ca146104a0578063e985e9c5146104bf578063eb46eb23146104de578063f242432a146104fd575f80fd5b8063571ecec91461039e5780635fd6bfbd146103bd57806391b7f5ed146103d0578063972d6c6d146103ef5780639a06b1131461040e578063a22cb46514610422575f80fd5b806317a03ee91161010457806317a03ee91461027e57806318cb2b811461029d5780632eb2c2d6146102bc5780633845b017146102db57806344ed3f58146102fa5780634e1273f414610372575f80fd5b8062fdd58e1461013f57806301ffc9a7146101715780630d0ee140146101a05780630e89341c146102315780631269555f1461025d575b5f80fd5b34801561014a575f80fd5b5061015e610159366004612390565b61051c565b6040519081526020015b60405180910390f35b34801561017c575f80fd5b5061019061018b3660046123cd565b610543565b6040519015158152602001610168565b3480156101ab575f80fd5b506101fc6101ba3660046123e8565b600a6020525f908152604090205461ffff80821691620100008104821691640100000000820481169166010000000000008104821691600160401b9091041685565b6040805161ffff968716815294861660208601529285169284019290925283166060830152909116608082015260a001610168565b34801561023c575f80fd5b5061025061024b3660046123e8565b610592565b604051610168919061242d565b348015610268575f80fd5b5061027c6102773660046123e8565b61066e565b005b348015610289575f80fd5b5061027c610298366004612450565b6106bb565b3480156102a8575f80fd5b506101906102b73660046123e8565b6107bd565b3480156102c7575f80fd5b5061027c6102d6366004612600565b610a0a565b3480156102e6575f80fd5b5061027c6102f53660046126a3565b610a71565b348015610305575f80fd5b506103196103143660046123e8565b610aea565b604080519c8d5260208d019b909b52998b019890985260608a0196909652608089019490945260a088019290925260c087015260e086015261010085015261012084015261014083015261016082015261018001610168565b34801561037d575f80fd5b5061039161038c366004612760565b610b55565b6040516101689190612854565b3480156103a9575f80fd5b5061027c6103b8366004612866565b610c20565b61027c6103cb3660046123e8565b610d00565b3480156103db575f80fd5b5061027c6103ea3660046123e8565b610dd2565b3480156103fa575f80fd5b5061015e6104093660046123e8565b610e16565b348015610419575f80fd5b5061027c611370565b34801561042d575f80fd5b5061027c61043c366004612898565b61166b565b34801561044c575f80fd5b506104747f000000000000000000000000000000000000000000000000000000000000000081565b6040516001600160a01b039091168152602001610168565b348015610497575f80fd5b5061027c611676565b3480156104ab575f80fd5b5061015e6104ba3660046128d1565b611a41565b3480156104ca575f80fd5b506101906104d9366004612901565b611a6e565b3480156104e9575f80fd5b5061027c6104f8366004612932565b611a9b565b348015610508575f80fd5b5061027c610517366004612964565b611aa6565b5f818152602081815260408083206001600160a01b03861684529091529020545b92915050565b5f6001600160e01b03198216636cdb3d1360e11b148061057357506001600160e01b031982166303a24d0760e21b145b8061053d57506301ffc9a760e01b6001600160e01b031983161461053d565b5f818152600460205260408120805460609291906105af906129c4565b80601f01602080910402602001604051908101604052809291908181526020018280546105db906129c4565b80156106265780601f106105fd57610100808354040283529160200191610626565b820191905f5260205f20905b81548152906001019060200180831161060957829003601f168201915b505050505090505f8151116106435761063e83611b05565b610667565b6003816040516020016106579291906129f6565b6040516020818303038152906040525b9392505050565b6006546001600160a01b031633148061069157506005546001600160a01b031633145b6106b65760405162461bcd60e51b81526004016106ad90612a77565b60405180910390fd5b600755565b6006546001600160a01b03163314806106de57506005546001600160a01b031633145b6106fa5760405162461bcd60e51b81526004016106ad90612a77565b6040805160a08101825261ffff9687168152948616602080870191825294871686830190815293871660608701908152928716608087019081525f988952600a909552962093518454965192519151935190861663ffffffff199097169690961762010000928616929092029190911767ffffffff0000000019166401000000009185169190910267ffff0000000000001916176601000000000000918416919091021769ffff00000000000000001916600160401b9390921692909202179055565b600c80545f91906107d090600190612ad4565b815481106107e0576107e0612ae7565b905f5260205f20906011020160010154421061083e5760405162461bcd60e51b815260206004820152601960248201527f43616e6e6f74207370696e2074686520776865656c207965740000000000000060448201526064016106ad565b600161084a335f61051c565b10156108685760405162461bcd60e51b81526004016106ad90612afb565b5f821180156108775750600d82105b6108b05760405162461bcd60e51b815260206004820152600a602482015269125b9d985b1a59081a5960b21b60448201526064016106ad565b600c8054662386f26fc1000091906108ca90600190612ad4565b815481106108da576108da612ae7565b905f5260205f2090601102016002015f8282546108f79190612b29565b9091555050604080514260208201526bffffffffffffffffffffffff193360601b1691810191909152605481018390525f90606590607401604051602081830303815290604052805190602001205f1c6109519190612b50565b9050600c8110156109f5576109685f600d33610c20565b600c805461097890600190612ad4565b8154811061098857610988612ae7565b5f918252602082206003601190920201018054916109a583612b63565b9091555050600c80546109ba90600190612ad4565b815481106109ca576109ca612ae7565b5f918252602082206010601190920201018054916109e783612b63565b919050555060019150610a04565b610a005f8433610c20565b5f91505b50919050565b336001600160a01b0386168114801590610a2b5750610a298682611a6e565b155b15610a5c5760405163711bec9160e11b81526001600160a01b038083166004830152871660248201526044016106ad565b610a698686868686611b97565b505050505050565b6006546001600160a01b0316331480610a9457506005546001600160a01b031633145b610ab05760405162461bcd60e51b81526004016106ad90612a77565b5f5b8151811015610ae657610ade81838381518110610ad157610ad1612ae7565b6020026020010151611bfc565b600101610ab2565b5050565b600c8181548110610af9575f80fd5b905f5260205f2090601102015f91509050805f01549080600101549080600201549080600301549080600401549080600501549080600601549080600701549080600801549080600901549080600a015490806010015490508c565b60608151835114610b865781518351604051635b05999160e01b8152600481019290925260248201526044016106ad565b5f835167ffffffffffffffff811115610ba157610ba16124b9565b604051908082528060200260200182016040528015610bca578160200160208202803683370190505b5090505f5b8451811015610c1857602080820286010151610bf39060208084028701015161051c565b828281518110610c0557610c05612ae7565b6020908102919091010152600101610bcf565b509392505050565b6006546001600160a01b0316331480610c4357506005546001600160a01b031633145b610c5f5760405162461bcd60e51b81526004016106ad90612a77565b6001610c6b828561051c565b1015610c895760405162461bcd60e51b81526004016106ad90612afb565b60075483108015610c9b575060075482105b610cd45760405162461bcd60e51b815260206004820152600a602482015269125b9d985b1a59081a5960b21b60448201526064016106ad565b610ce081846001611c58565b610cfb8183600160405180602001604052805f815250611cbe565b505050565b80600954610d0e9190612b7b565b341015610d505760405162461bcd60e51b815260206004820152601060248201526f125b98dbdc9c9958dd08185b5bdd5b9d60821b60448201526064016106ad565b600a81610d5d335f61051c565b610d679190612b29565b1115610db55760405162461bcd60e51b815260206004820152601b60248201527f596f752063616e206f6e6c79206d696e7420313020746f6b656e73000000000060448201526064016106ad565b610dcf335f8360405180602001604052805f815250611cbe565b50565b6006546001600160a01b0316331480610df557506005546001600160a01b031633145b610e115760405162461bcd60e51b81526004016106ad90612a77565b600955565b5f80610e2333600d61051c565b11610e405760405162461bcd60e51b81526004016106ad90612afb565b5f60644233604051602001610e8092919091825260601b6bffffffffffffffffffffffff19166020820152655a6f6469616b60d01b6034820152603a0190565b604051602081830303815290604052805190602001205f1c610ea29190612b50565b905060148111610f75575f600c8481548110610ec057610ec0612ae7565b5f91825260208220600b6011909202010101541115610f6c57335f908152600b60205260408120600c54600e9450909190610efd90600190612ad4565b81526020019081526020015f205f60058110610f1b57610f1b612ae7565b018054905f610f2983612b63565b9190505550600c8381548110610f4157610f41612ae7565b5f91825260208220600b60119092020101905b018054905f610f6283612b92565b919050555061132f565b600f915061132f565b60288111158015610f865750601481115b80610f91575081600f145b15611058575f600c8481548110610faa57610faa612ae7565b905f5260205f209060110201600b01600160058110610fcb57610fcb612ae7565b0154111561104f57335f908152600b60205260408120600c54600f9450909190610ff790600190612ad4565b815260208101919091526040015f206001018054905f61101683612b63565b9190505550600c838154811061102e5761102e612ae7565b905f5260205f209060110201600b01600160058110610f5457610f54612ae7565b6010915061132f565b603c81111580156110695750602881115b806110745750816010145b1561113b575f600c848154811061108d5761108d612ae7565b905f5260205f209060110201600b016002600581106110ae576110ae612ae7565b0154111561113257335f908152600b60205260408120600c54601094509091906110da90600190612ad4565b815260208101919091526040015f206002018054905f6110f983612b63565b9190505550600c838154811061111157611111612ae7565b905f5260205f209060110201600b01600260058110610f5457610f54612ae7565b6011915061132f565b6050811115801561114c5750603c81115b15611256575f600c848154811061116557611165612ae7565b905f5260205f209060110201600b0160036005811061118657611186612ae7565b0154111561124d57335f908152600b60205260408120600c54601194509091906111b290600190612ad4565b815260208101919091526040015f206003018054905f6111d183612b63565b9190505550600c83815481106111e9576111e9612ae7565b905f5260205f209060110201600b0160036005811061120a5761120a612ae7565b018054905f61121883612b92565b9190505550600c838154811061123057611230612ae7565b5f91825260208220600960119092020101805491610f6283612b63565b6012915061132f565b60508111806112655750816012145b1561132f57335f908152600b60205260408120600c546012945090919061128e90600190612ad4565b815260208101919091526040015f206004018054905f6112ad83612b63565b9190505550600c83815481106112c5576112c5612ae7565b905f5260205f209060110201600b016004600581106112e6576112e6612ae7565b018054905f6112f483612b92565b9190505550600c838154811061130c5761130c612ae7565b5f91825260208220600a6011909202010180549161132983612b63565b91905055505b600c838154811061134257611342612ae7565b5f9182526020822060106011909202010180549161135f83612b92565b9190505550610a04600d8333610c20565b6006546001600160a01b031633148061139357506005546001600160a01b031633145b6113af5760405162461bcd60e51b81526004016106ad90612a77565b600c80546113bf90600190612ad4565b815481106113cf576113cf612ae7565b905f5260205f20906011020160010154421161142d5760405162461bcd60e51b815260206004820152601a60248201527f43616e6e6f7420637265617465206e657720706f6f6c2079657400000000000060448201526064016106ad565b6114356122a3565b4280825261144590612a30612b29565b60208201908152600c80546001810182555f91909152825160119091027fdf6966c971051c3d54ec59162606531493a51404a002842f56009d7e5cf4a8c7810191825591517fdf6966c971051c3d54ec59162606531493a51404a002842f56009d7e5cf4a8c883015560408301517fdf6966c971051c3d54ec59162606531493a51404a002842f56009d7e5cf4a8c983015560608301517fdf6966c971051c3d54ec59162606531493a51404a002842f56009d7e5cf4a8ca83015560808301517fdf6966c971051c3d54ec59162606531493a51404a002842f56009d7e5cf4a8cb83015560a08301517fdf6966c971051c3d54ec59162606531493a51404a002842f56009d7e5cf4a8cc83015560c08301517fdf6966c971051c3d54ec59162606531493a51404a002842f56009d7e5cf4a8cd83015560e08301517fdf6966c971051c3d54ec59162606531493a51404a002842f56009d7e5cf4a8ce8301556101008301517fdf6966c971051c3d54ec59162606531493a51404a002842f56009d7e5cf4a8cf8301556101208301517fdf6966c971051c3d54ec59162606531493a51404a002842f56009d7e5cf4a8d08301556101408301517fdf6966c971051c3d54ec59162606531493a51404a002842f56009d7e5cf4a8d1830155610160830151839261165a917fdf6966c971051c3d54ec59162606531493a51404a002842f56009d7e5cf4a8d2909101906005612305565b506101808201518160100155505050565b610ae6338383611d19565b6006546001600160a01b031633148061169957506005546001600160a01b031633145b6116b55760405162461bcd60e51b81526004016106ad90612a77565b600c80545f91906116c890600190612ad4565b815481106116d8576116d8612ae7565b905f5260205f209060110201604051806101a00160405290815f8201548152602001600182015481526020016002820154815260200160038201548152602001600482015481526020016005820154815260200160068201548152602001600782015481526020016008820154815260200160098201548152602001600a8201548152602001600b8201600580602002604051908101604052809291908260058015611799576020028201915b815481526020019060010190808311611785575b5050505050815260200160108201548152505090505f600c6001600c805490506117c39190612ad4565b815481106117d3576117d3612ae7565b905f5260205f20906011020190505f60648360400151600a6117f59190612b7b565b6117ff9190612ba7565b90508083604001516118119190612ad4565b604084018190526002830155602083015142116118685760405162461bcd60e51b815260206004820152601560248201527410d85b9b9bdd081d185b1b1e481c1bdbdb081e595d605a1b60448201526064016106ad565b5f8360600151116118b05760405162461bcd60e51b81526020600482015260126024820152714e6f2077696e6e696e67207469636b65747360701b60448201526064016106ad565b6064836040015160196118c39190612b7b565b6118cd9190612ba7565b600483015560408301516064906118e590600a612b7b565b6118ef9190612ba7565b826005018190555060648360400151600561190a9190612b7b565b6119149190612ba7565b6006830155604083015160649061192c906014612b7b565b6119369190612ba7565b6007830155604083015160649061194e906028612b7b565b6119589190612ba7565b82600801819055506040518060a001604052806001815260200160018152602001600181526020016064600386606001516119939190612ad4565b61199e90601e612b7b565b6119a89190612ba7565b81526020016064600386606001516119c09190612ad4565b6119cb906046612b7b565b6119d59190612ba7565b90526119e790600b8401906005612305565b506040516001600160a01b037f0000000000000000000000000000000000000000000000000000000000000000169082156108fc029083905f818181858888f19350505050158015611a3b573d5f803e3d5ffd5b50505050565b600b602052825f5260405f20602052815f5260405f208160058110611a64575f80fd5b0154925083915050565b6001600160a01b039182165f90815260016020908152604080832093909416825291909152205460ff1690565b610cfb828483611c58565b336001600160a01b0386168114801590611ac75750611ac58682611a6e565b155b15611af85760405163711bec9160e11b81526001600160a01b038083166004830152871660248201526044016106ad565b610a698686868686611dad565b606060028054611b14906129c4565b80601f0160208091040260200160405190810160405280929190818152602001828054611b40906129c4565b8015611b8b5780601f10611b6257610100808354040283529160200191611b8b565b820191905f5260205f20905b815481529060010190602001808311611b6e57829003601f168201915b50505050509050919050565b6001600160a01b038416611bc057604051632bfa23e760e11b81525f60048201526024016106ad565b6001600160a01b038516611be857604051626a0d4560e21b81525f60048201526024016106ad565b611bf58585858585611e39565b5050505050565b5f828152600460205260409020611c138282612bfe565b50817f6bb7ff708619ba0610cba295a58592e0451dee2622938c8755667688daf3529b611c3f84610592565b604051611c4c919061242d565b60405180910390a25050565b6001600160a01b038316611c8057604051626a0d4560e21b81525f60048201526024016106ad565b604080516001808252602082018590528183019081526060820184905260a082019092525f60808201818152919291611bf591879185908590611e39565b6001600160a01b038416611ce757604051632bfa23e760e11b81525f60048201526024016106ad565b60408051600180825260208201869052818301908152606082018590526080820190925290610a695f87848487611e39565b6001600160a01b038216611d415760405162ced3e160e81b81525f60048201526024016106ad565b6001600160a01b038381165f81815260016020908152604080832094871680845294825291829020805460ff191686151590811790915591519182527f17307eab39ab6107e8899845ad3d59bd9653f200f220920489ca2b5937696c31910160405180910390a3505050565b6001600160a01b038416611dd657604051632bfa23e760e11b81525f60048201526024016106ad565b6001600160a01b038516611dfe57604051626a0d4560e21b81525f60048201526024016106ad565b60408051600180825260208201869052818301908152606082018590526080820190925290611e308787848487611e39565b50505050505050565b611e4585858585611e8c565b6001600160a01b03841615611bf55782513390600103611e7e5760208481015190840151611e7783898985858961209b565b5050610a69565b610a698187878787876121bc565b8051825114611ebb5781518151604051635b05999160e01b8152600481019290925260248201526044016106ad565b335f5b8351811015611fbd576020818102858101820151908501909101516001600160a01b03881615611f6f575f828152602081815260408083206001600160a01b038c16845290915290205481811015611f49576040516303dee4c560e01b81526001600160a01b038a1660048201526024810182905260448101839052606481018490526084016106ad565b5f838152602081815260408083206001600160a01b038d16845290915290209082900390555b6001600160a01b03871615611fb3575f828152602081815260408083206001600160a01b038b16845290915281208054839290611fad908490612b29565b90915550505b5050600101611ebe565b50825160010361203d5760208301515f906020840151909150856001600160a01b0316876001600160a01b0316846001600160a01b03167fc3d58168c5ae7397731d063d5bbf3d657854427343f4c083240f7aacaa2d0f62858560405161202e929190918252602082015260400190565b60405180910390a45050611bf5565b836001600160a01b0316856001600160a01b0316826001600160a01b03167f4a39dc06d4c0dbc64b70af90fd698a233a518aa5d07e595d983b8c0526c8f7fb868660405161208c929190612cba565b60405180910390a45050505050565b6001600160a01b0384163b15610a695760405163f23a6e6160e01b81526001600160a01b0385169063f23a6e61906120df9089908990889088908890600401612ce7565b6020604051808303815f875af1925050508015612119575060408051601f3d908101601f1916820190925261211691810190612d2b565b60015b612180573d808015612146576040519150601f19603f3d011682016040523d82523d5f602084013e61214b565b606091505b5080515f0361217857604051632bfa23e760e11b81526001600160a01b03861660048201526024016106ad565b805181602001fd5b6001600160e01b0319811663f23a6e6160e01b14611e3057604051632bfa23e760e11b81526001600160a01b03861660048201526024016106ad565b6001600160a01b0384163b15610a695760405163bc197c8160e01b81526001600160a01b0385169063bc197c81906122009089908990889088908890600401612d46565b6020604051808303815f875af192505050801561223a575060408051601f3d908101601f1916820190925261223791810190612d2b565b60015b612267573d808015612146576040519150601f19603f3d011682016040523d82523d5f602084013e61214b565b6001600160e01b0319811663bc197c8160e01b14611e3057604051632bfa23e760e11b81526001600160a01b03861660048201526024016106ad565b604051806101a001604052805f81526020015f81526020015f81526020015f81526020015f81526020015f81526020015f81526020015f81526020015f81526020015f81526020015f81526020016122f9612343565b81526020015f81525090565b8260058101928215612333579160200282015b82811115612333578251825591602001919060010190612318565b5061233f929150612361565b5090565b6040518060a001604052806005906020820280368337509192915050565b5b8082111561233f575f8155600101612362565b80356001600160a01b038116811461238b575f80fd5b919050565b5f80604083850312156123a1575f80fd5b6123aa83612375565b946020939093013593505050565b6001600160e01b031981168114610dcf575f80fd5b5f602082840312156123dd575f80fd5b8135610667816123b8565b5f602082840312156123f8575f80fd5b5035919050565b5f81518084528060208401602086015e5f602082860101526020601f19601f83011685010191505092915050565b602081525f61066760208301846123ff565b803561ffff8116811461238b575f80fd5b5f805f805f8060c08789031215612465575f80fd5b863595506124756020880161243f565b94506124836040880161243f565b93506124916060880161243f565b925061249f6080880161243f565b91506124ad60a0880161243f565b90509295509295509295565b634e487b7160e01b5f52604160045260245ffd5b604051601f8201601f1916810167ffffffffffffffff811182821017156124f6576124f66124b9565b604052919050565b5f67ffffffffffffffff821115612517576125176124b9565b5060051b60200190565b5f82601f830112612530575f80fd5b81356020612545612540836124fe565b6124cd565b8083825260208201915060208460051b870101935086841115612566575f80fd5b602086015b84811015612582578035835291830191830161256b565b509695505050505050565b5f67ffffffffffffffff8311156125a6576125a66124b9565b6125b9601f8401601f19166020016124cd565b90508281528383830111156125cc575f80fd5b828260208301375f602084830101529392505050565b5f82601f8301126125f1575f80fd5b6106678383356020850161258d565b5f805f805f60a08688031215612614575f80fd5b61261d86612375565b945061262b60208701612375565b9350604086013567ffffffffffffffff80821115612647575f80fd5b61265389838a01612521565b94506060880135915080821115612668575f80fd5b61267489838a01612521565b93506080880135915080821115612689575f80fd5b50612696888289016125e2565b9150509295509295909350565b5f60208083850312156126b4575f80fd5b823567ffffffffffffffff808211156126cb575f80fd5b818501915085601f8301126126de575f80fd5b81356126ec612540826124fe565b81815260059190911b8301840190848101908883111561270a575f80fd5b8585015b8381101561275357803585811115612724575f80fd5b8601603f81018b13612734575f80fd5b6127458b898301356040840161258d565b84525091860191860161270e565b5098975050505050505050565b5f8060408385031215612771575f80fd5b823567ffffffffffffffff80821115612788575f80fd5b818501915085601f83011261279b575f80fd5b813560206127ab612540836124fe565b82815260059290921b840181019181810190898411156127c9575f80fd5b948201945b838610156127ee576127df86612375565b825294820194908201906127ce565b96505086013592505080821115612803575f80fd5b5061281085828601612521565b9150509250929050565b5f815180845260208085019450602084015f5b838110156128495781518752958201959082019060010161282d565b509495945050505050565b602081525f610667602083018461281a565b5f805f60608486031215612878575f80fd5b833592506020840135915061288f60408501612375565b90509250925092565b5f80604083850312156128a9575f80fd5b6128b283612375565b9150602083013580151581146128c6575f80fd5b809150509250929050565b5f805f606084860312156128e3575f80fd5b6128ec84612375565b95602085013595506040909401359392505050565b5f8060408385031215612912575f80fd5b61291b83612375565b915061292960208401612375565b90509250929050565b5f805f60608486031215612944575f80fd5b8335925061295460208501612375565b9150604084013590509250925092565b5f805f805f60a08688031215612978575f80fd5b61298186612375565b945061298f60208701612375565b93506040860135925060608601359150608086013567ffffffffffffffff8111156129b8575f80fd5b612696888289016125e2565b600181811c908216806129d857607f821691505b602082108103610a0457634e487b7160e01b5f52602260045260245ffd5b5f808454612a03816129c4565b60018281168015612a1b5760018114612a3057612a5c565b60ff1984168752821515830287019450612a5c565b885f526020805f205f5b85811015612a535781548a820152908401908201612a3a565b50505082870194505b5050505083518060208601835e5f9101908152949350505050565b60208082526029908201527f4f6e6c7920436f736d696320706f776572732063616e2063616c6c207468697360408201526810333ab731ba34b7b760b91b606082015260800190565b634e487b7160e01b5f52601160045260245ffd5b8181038181111561053d5761053d612ac0565b634e487b7160e01b5f52603260045260245ffd5b602080825260149082015273496e73756666696369656e742062616c616e636560601b604082015260600190565b8082018082111561053d5761053d612ac0565b634e487b7160e01b5f52601260045260245ffd5b5f82612b5e57612b5e612b3c565b500690565b5f60018201612b7457612b74612ac0565b5060010190565b808202811582820484141761053d5761053d612ac0565b5f81612ba057612ba0612ac0565b505f190190565b5f82612bb557612bb5612b3c565b500490565b601f821115610cfb57805f5260205f20601f840160051c81016020851015612bdf5750805b601f840160051c820191505b81811015611bf5575f8155600101612beb565b815167ffffffffffffffff811115612c1857612c186124b9565b612c2c81612c2684546129c4565b84612bba565b602080601f831160018114612c5f575f8415612c485750858301515b5f19600386901b1c1916600185901b178555610a69565b5f85815260208120601f198616915b82811015612c8d57888601518255948401946001909101908401612c6e565b5085821015612caa57878501515f19600388901b60f8161c191681555b5050505050600190811b01905550565b604081525f612ccc604083018561281a565b8281036020840152612cde818561281a565b95945050505050565b6001600160a01b03868116825285166020820152604081018490526060810183905260a0608082018190525f90612d20908301846123ff565b979650505050505050565b5f60208284031215612d3b575f80fd5b8151610667816123b8565b6001600160a01b0386811682528516602082015260a0604082018190525f90612d719083018661281a565b8281036060840152612d83818661281a565b90508281036080840152612d9781856123ff565b9897505050505050505056fea26469706673582212209200d35aab083379477da4f430f22848d99ecc3e7bbe8c43ac3edd16e52abb5e64736f6c63430008190033",
    "sourcePath": "/home/torof/desk/portfolio/zodiak333/src/ZodiakLottery.sol",
    "compiler": {
        "name": "solc",
        "version": "0.8.25+commit.b61c2a91"
    },
    "functionHashes": {
        "ZDK()": "a6bf3181",
        "balanceOf(address,uint256)": "00fdd58e",
        "balanceOfBatch(address[],uint256[])": "4e1273f4",
        "cosmicMutation(uint256,uint256,address)": "571ecec9",
        "cosmicReshape(uint256,uint16,uint16,uint16,uint16,uint16)": "17a03ee9",
        "createPool()": "9a06b113",
        "initURI(string[])": "3845b017",
        "isApprovedForAll(address,address)": "e985e9c5",
        "lotteryPools(uint256)": "44ed3f58",
        "revealPrize(uint256)": "972d6c6d",
        "safeBatchTransferFrom(address,address,uint256[],uint256[],bytes)": "2eb2c2d6",
        "safeTransferFrom(address,address,uint256,uint256,bytes)": "f242432a",
        "setApprovalForAll(address,bool)": "a22cb465",
        "setMaxCollections(uint256)": "1269555f",
        "setPrice(uint256)": "91b7f5ed",
        "spinTheWheel(uint256)": "18cb2b81",
        "summonLuck(uint256)": "5fd6bfbd",
        "supportsInterface(bytes4)": "01ffc9a7",
        "tallyPool()": "cc866375",
        "uri(uint256)": "0e89341c",
        "userWinningTickets(address,uint256,uint256)": "dfd863ca",
        "voidRelease(uint256,address,uint256)": "eb46eb23",
        "zodiakBonuses(uint256)": "0d0ee140"
    },
    "gasEstimates": {
        "creation": {
            "codeDepositCost": "2347400",
            "executionCost": "infinite",
            "totalCost": "infinite"
        },
        "external": {
            "ZDK()": "infinite",
            "balanceOf(address,uint256)": "2657",
            "balanceOfBatch(address[],uint256[])": "infinite",
            "cosmicMutation(uint256,uint256,address)": "infinite",
            "cosmicReshape(uint256,uint16,uint16,uint16,uint16,uint16)": "infinite",
            "createPool()": "infinite",
            "initURI(string[])": "infinite",
            "isApprovedForAll(address,address)": "infinite",
            "lotteryPools(uint256)": "28152",
            "revealPrize(uint256)": "infinite",
            "safeBatchTransferFrom(address,address,uint256[],uint256[],bytes)": "infinite",
            "safeTransferFrom(address,address,uint256,uint256,bytes)": "infinite",
            "setApprovalForAll(address,bool)": "26789",
            "setMaxCollections(uint256)": "26719",
            "setPrice(uint256)": "26674",
            "spinTheWheel(uint256)": "infinite",
            "summonLuck(uint256)": "infinite",
            "supportsInterface(bytes4)": "575",
            "tallyPool()": "infinite",
            "uri(uint256)": "infinite",
            "userWinningTickets(address,uint256,uint256)": "2721",
            "voidRelease(uint256,address,uint256)": "infinite",
            "zodiakBonuses(uint256)": "2715"
        }
    }
}