{
    "contractName": "ZodiakNFT",
    "abi": [
        {
            "inputs": [
                {
                    "internalType": "string",
                    "name": "_uri",
                    "type": "string"
                },
                {
                    "internalType": "address",
                    "name": "_theMighty",
                    "type": "address"
                }
            ],
            "stateMutability": "nonpayable",
            "type": "constructor"
        },
        {
            "inputs": [
                {
                    "internalType": "address",
                    "name": "sender",
                    "type": "address"
                },
                {
                    "internalType": "uint256",
                    "name": "balance",
                    "type": "uint256"
                },
                {
                    "internalType": "uint256",
                    "name": "needed",
                    "type": "uint256"
                },
                {
                    "internalType": "uint256",
                    "name": "tokenId",
                    "type": "uint256"
                }
            ],
            "name": "ERC1155InsufficientBalance",
            "type": "error"
        },
        {
            "inputs": [
                {
                    "internalType": "address",
                    "name": "approver",
                    "type": "address"
                }
            ],
            "name": "ERC1155InvalidApprover",
            "type": "error"
        },
        {
            "inputs": [
                {
                    "internalType": "uint256",
                    "name": "idsLength",
                    "type": "uint256"
                },
                {
                    "internalType": "uint256",
                    "name": "valuesLength",
                    "type": "uint256"
                }
            ],
            "name": "ERC1155InvalidArrayLength",
            "type": "error"
        },
        {
            "inputs": [
                {
                    "internalType": "address",
                    "name": "operator",
                    "type": "address"
                }
            ],
            "name": "ERC1155InvalidOperator",
            "type": "error"
        },
        {
            "inputs": [
                {
                    "internalType": "address",
                    "name": "receiver",
                    "type": "address"
                }
            ],
            "name": "ERC1155InvalidReceiver",
            "type": "error"
        },
        {
            "inputs": [
                {
                    "internalType": "address",
                    "name": "sender",
                    "type": "address"
                }
            ],
            "name": "ERC1155InvalidSender",
            "type": "error"
        },
        {
            "inputs": [
                {
                    "internalType": "address",
                    "name": "operator",
                    "type": "address"
                },
                {
                    "internalType": "address",
                    "name": "owner",
                    "type": "address"
                }
            ],
            "name": "ERC1155MissingApprovalForAll",
            "type": "error"
        },
        {
            "anonymous": false,
            "inputs": [
                {
                    "indexed": true,
                    "internalType": "address",
                    "name": "account",
                    "type": "address"
                },
                {
                    "indexed": true,
                    "internalType": "address",
                    "name": "operator",
                    "type": "address"
                },
                {
                    "indexed": false,
                    "internalType": "bool",
                    "name": "approved",
                    "type": "bool"
                }
            ],
            "name": "ApprovalForAll",
            "type": "event"
        },
        {
            "anonymous": false,
            "inputs": [
                {
                    "indexed": true,
                    "internalType": "address",
                    "name": "operator",
                    "type": "address"
                },
                {
                    "indexed": true,
                    "internalType": "address",
                    "name": "from",
                    "type": "address"
                },
                {
                    "indexed": true,
                    "internalType": "address",
                    "name": "to",
                    "type": "address"
                },
                {
                    "indexed": false,
                    "internalType": "uint256[]",
                    "name": "ids",
                    "type": "uint256[]"
                },
                {
                    "indexed": false,
                    "internalType": "uint256[]",
                    "name": "values",
                    "type": "uint256[]"
                }
            ],
            "name": "TransferBatch",
            "type": "event"
        },
        {
            "anonymous": false,
            "inputs": [
                {
                    "indexed": true,
                    "internalType": "address",
                    "name": "operator",
                    "type": "address"
                },
                {
                    "indexed": true,
                    "internalType": "address",
                    "name": "from",
                    "type": "address"
                },
                {
                    "indexed": true,
                    "internalType": "address",
                    "name": "to",
                    "type": "address"
                },
                {
                    "indexed": false,
                    "internalType": "uint256",
                    "name": "id",
                    "type": "uint256"
                },
                {
                    "indexed": false,
                    "internalType": "uint256",
                    "name": "value",
                    "type": "uint256"
                }
            ],
            "name": "TransferSingle",
            "type": "event"
        },
        {
            "anonymous": false,
            "inputs": [
                {
                    "indexed": false,
                    "internalType": "string",
                    "name": "value",
                    "type": "string"
                },
                {
                    "indexed": true,
                    "internalType": "uint256",
                    "name": "id",
                    "type": "uint256"
                }
            ],
            "name": "URI",
            "type": "event"
        },
        {
            "inputs": [
                {
                    "internalType": "address",
                    "name": "account",
                    "type": "address"
                },
                {
                    "internalType": "uint256",
                    "name": "id",
                    "type": "uint256"
                }
            ],
            "name": "balanceOf",
            "outputs": [
                {
                    "internalType": "uint256",
                    "name": "",
                    "type": "uint256"
                }
            ],
            "stateMutability": "view",
            "type": "function"
        },
        {
            "inputs": [
                {
                    "internalType": "address[]",
                    "name": "accounts",
                    "type": "address[]"
                },
                {
                    "internalType": "uint256[]",
                    "name": "ids",
                    "type": "uint256[]"
                }
            ],
            "name": "balanceOfBatch",
            "outputs": [
                {
                    "internalType": "uint256[]",
                    "name": "",
                    "type": "uint256[]"
                }
            ],
            "stateMutability": "view",
            "type": "function"
        },
        {
            "inputs": [
                {
                    "internalType": "uint256",
                    "name": "_idFrom",
                    "type": "uint256"
                },
                {
                    "internalType": "uint256",
                    "name": "_idTo",
                    "type": "uint256"
                },
                {
                    "internalType": "address",
                    "name": "_owner",
                    "type": "address"
                }
            ],
            "name": "cosmicMutation",
            "outputs": [],
            "stateMutability": "nonpayable",
            "type": "function"
        },
        {
            "inputs": [
                {
                    "internalType": "uint256",
                    "name": "_id",
                    "type": "uint256"
                },
                {
                    "internalType": "uint16",
                    "name": "_strength",
                    "type": "uint16"
                },
                {
                    "internalType": "uint16",
                    "name": "_agility",
                    "type": "uint16"
                },
                {
                    "internalType": "uint16",
                    "name": "_intelligence",
                    "type": "uint16"
                },
                {
                    "internalType": "uint16",
                    "name": "_vitality",
                    "type": "uint16"
                },
                {
                    "internalType": "uint16",
                    "name": "_luck",
                    "type": "uint16"
                }
            ],
            "name": "cosmicReshape",
            "outputs": [],
            "stateMutability": "nonpayable",
            "type": "function"
        },
        {
            "inputs": [
                {
                    "internalType": "string[]",
                    "name": "_uris",
                    "type": "string[]"
                }
            ],
            "name": "initURI",
            "outputs": [],
            "stateMutability": "nonpayable",
            "type": "function"
        },
        {
            "inputs": [
                {
                    "internalType": "address",
                    "name": "account",
                    "type": "address"
                },
                {
                    "internalType": "address",
                    "name": "operator",
                    "type": "address"
                }
            ],
            "name": "isApprovedForAll",
            "outputs": [
                {
                    "internalType": "bool",
                    "name": "",
                    "type": "bool"
                }
            ],
            "stateMutability": "view",
            "type": "function"
        },
        {
            "inputs": [
                {
                    "internalType": "address",
                    "name": "from",
                    "type": "address"
                },
                {
                    "internalType": "address",
                    "name": "to",
                    "type": "address"
                },
                {
                    "internalType": "uint256[]",
                    "name": "ids",
                    "type": "uint256[]"
                },
                {
                    "internalType": "uint256[]",
                    "name": "values",
                    "type": "uint256[]"
                },
                {
                    "internalType": "bytes",
                    "name": "data",
                    "type": "bytes"
                }
            ],
            "name": "safeBatchTransferFrom",
            "outputs": [],
            "stateMutability": "nonpayable",
            "type": "function"
        },
        {
            "inputs": [
                {
                    "internalType": "address",
                    "name": "from",
                    "type": "address"
                },
                {
                    "internalType": "address",
                    "name": "to",
                    "type": "address"
                },
                {
                    "internalType": "uint256",
                    "name": "id",
                    "type": "uint256"
                },
                {
                    "internalType": "uint256",
                    "name": "value",
                    "type": "uint256"
                },
                {
                    "internalType": "bytes",
                    "name": "data",
                    "type": "bytes"
                }
            ],
            "name": "safeTransferFrom",
            "outputs": [],
            "stateMutability": "nonpayable",
            "type": "function"
        },
        {
            "inputs": [
                {
                    "internalType": "address",
                    "name": "operator",
                    "type": "address"
                },
                {
                    "internalType": "bool",
                    "name": "approved",
                    "type": "bool"
                }
            ],
            "name": "setApprovalForAll",
            "outputs": [],
            "stateMutability": "nonpayable",
            "type": "function"
        },
        {
            "inputs": [
                {
                    "internalType": "uint256",
                    "name": "_maxCollections",
                    "type": "uint256"
                }
            ],
            "name": "setMaxCollections",
            "outputs": [],
            "stateMutability": "nonpayable",
            "type": "function"
        },
        {
            "inputs": [
                {
                    "internalType": "uint256",
                    "name": "_price",
                    "type": "uint256"
                }
            ],
            "name": "setPrice",
            "outputs": [],
            "stateMutability": "nonpayable",
            "type": "function"
        },
        {
            "inputs": [
                {
                    "internalType": "uint256",
                    "name": "_amount",
                    "type": "uint256"
                }
            ],
            "name": "summonLuck",
            "outputs": [],
            "stateMutability": "payable",
            "type": "function"
        },
        {
            "inputs": [
                {
                    "internalType": "bytes4",
                    "name": "interfaceId",
                    "type": "bytes4"
                }
            ],
            "name": "supportsInterface",
            "outputs": [
                {
                    "internalType": "bool",
                    "name": "",
                    "type": "bool"
                }
            ],
            "stateMutability": "view",
            "type": "function"
        },
        {
            "inputs": [
                {
                    "internalType": "uint256",
                    "name": "tokenId",
                    "type": "uint256"
                }
            ],
            "name": "uri",
            "outputs": [
                {
                    "internalType": "string",
                    "name": "",
                    "type": "string"
                }
            ],
            "stateMutability": "view",
            "type": "function"
        },
        {
            "inputs": [
                {
                    "internalType": "uint256",
                    "name": "tokenId",
                    "type": "uint256"
                },
                {
                    "internalType": "address",
                    "name": "_from",
                    "type": "address"
                },
                {
                    "internalType": "uint256",
                    "name": "_amount",
                    "type": "uint256"
                }
            ],
            "name": "voidRelease",
            "outputs": [],
            "stateMutability": "nonpayable",
            "type": "function"
        },
        {
            "inputs": [
                {
                    "internalType": "uint256",
                    "name": "",
                    "type": "uint256"
                }
            ],
            "name": "zodiakBonuses",
            "outputs": [
                {
                    "internalType": "uint16",
                    "name": "strength",
                    "type": "uint16"
                },
                {
                    "internalType": "uint16",
                    "name": "agility",
                    "type": "uint16"
                },
                {
                    "internalType": "uint16",
                    "name": "intelligence",
                    "type": "uint16"
                },
                {
                    "internalType": "uint16",
                    "name": "vitality",
                    "type": "uint16"
                },
                {
                    "internalType": "uint16",
                    "name": "luck",
                    "type": "uint16"
                }
            ],
            "stateMutability": "view",
            "type": "function"
        }
    ],
    "bytecode": "60a06040525f60809081526003906100179082610130565b506013600755600c600855662386f26fc10000600955348015610038575f80fd5b50604051611e94380380611e948339810160408190526100579161020a565b8161006181610088565b50600580546001600160a01b0319166001600160a01b0392909216919091179055506102c5565b60026100948282610130565b5050565b634e487b7160e01b5f52604160045260245ffd5b600181811c908216806100c057607f821691505b6020821081036100de57634e487b7160e01b5f52602260045260245ffd5b50919050565b601f82111561012b57805f5260205f20601f840160051c810160208510156101095750805b601f840160051c820191505b81811015610128575f8155600101610115565b50505b505050565b81516001600160401b0381111561014957610149610098565b61015d8161015784546100ac565b846100e4565b602080601f831160018114610190575f84156101795750858301515b5f19600386901b1c1916600185901b1785556101e7565b5f85815260208120601f198616915b828110156101be5788860151825594840194600190910190840161019f565b50858210156101db57878501515f19600388901b60f8161c191681555b505060018460011b0185555b505050505050565b80516001600160a01b0381168114610205575f80fd5b919050565b5f806040838503121561021b575f80fd5b82516001600160401b0380821115610231575f80fd5b818501915085601f830112610244575f80fd5b81518181111561025657610256610098565b604051601f8201601f19908116603f0116810190838211818310171561027e5761027e610098565b81604052828152886020848701011115610296575f80fd5b8260208601602083015e5f6020848301015280965050505050506102bc602084016101ef565b90509250929050565b611bc2806102d25f395ff3fe6080604052600436106100ee575f3560e01c80634e1273f411610087578063a22cb46511610057578063a22cb4651461030b578063e985e9c51461032a578063eb46eb2314610349578063f242432a14610368575f80fd5b80634e1273f41461028e578063571ecec9146102ba5780635fd6bfbd146102d957806391b7f5ed146102ec575f80fd5b80631269555f116100c25780631269555f1461021057806317a03ee9146102315780632eb2c2d6146102505780633845b0171461026f575f80fd5b8062fdd58e146100f257806301ffc9a7146101245780630d0ee140146101535780630e89341c146101e4575b5f80fd5b3480156100fd575f80fd5b5061011161010c36600461124b565b610387565b6040519081526020015b60405180910390f35b34801561012f575f80fd5b5061014361013e366004611288565b6103ae565b604051901515815260200161011b565b34801561015e575f80fd5b506101af61016d3660046112a3565b600a6020525f908152604090205461ffff80821691620100008104821691640100000000820481169166010000000000008104821691600160401b9091041685565b6040805161ffff968716815294861660208601529285169284019290925283166060830152909116608082015260a00161011b565b3480156101ef575f80fd5b506102036101fe3660046112a3565b6103fd565b60405161011b91906112e8565b34801561021b575f80fd5b5061022f61022a3660046112a3565b6104d9565b005b34801561023c575f80fd5b5061022f61024b36600461130b565b610526565b34801561025b575f80fd5b5061022f61026a3660046114bb565b610628565b34801561027a575f80fd5b5061022f61028936600461155e565b61068f565b348015610299575f80fd5b506102ad6102a836600461161b565b610708565b60405161011b919061170f565b3480156102c5575f80fd5b5061022f6102d4366004611721565b6107d3565b61022f6102e73660046112a3565b6108da565b3480156102f7575f80fd5b5061022f6103063660046112a3565b6109ac565b348015610316575f80fd5b5061022f610325366004611753565b6109f0565b348015610335575f80fd5b5061014361034436600461178c565b6109fb565b348015610354575f80fd5b5061022f6103633660046117bd565b610a28565b348015610373575f80fd5b5061022f6103823660046117ef565b610a33565b5f818152602081815260408083206001600160a01b03861684529091529020545b92915050565b5f6001600160e01b03198216636cdb3d1360e11b14806103de57506001600160e01b031982166303a24d0760e21b145b806103a857506301ffc9a760e01b6001600160e01b03198316146103a8565b5f8181526004602052604081208054606092919061041a9061184f565b80601f01602080910402602001604051908101604052809291908181526020018280546104469061184f565b80156104915780601f1061046857610100808354040283529160200191610491565b820191905f5260205f20905b81548152906001019060200180831161047457829003601f168201915b505050505090505f8151116104ae576104a983610a92565b6104d2565b6003816040516020016104c2929190611887565b6040516020818303038152906040525b9392505050565b6006546001600160a01b03163314806104fc57506005546001600160a01b031633145b6105215760405162461bcd60e51b815260040161051890611908565b60405180910390fd5b600755565b6006546001600160a01b031633148061054957506005546001600160a01b031633145b6105655760405162461bcd60e51b815260040161051890611908565b6040805160a08101825261ffff9687168152948616602080870191825294871686830190815293871660608701908152928716608087019081525f988952600a909552962093518454965192519151935190861663ffffffff199097169690961762010000928616929092029190911767ffffffff0000000019166401000000009185169190910267ffff0000000000001916176601000000000000918416919091021769ffff00000000000000001916600160401b9390921692909202179055565b336001600160a01b0386168114801590610649575061064786826109fb565b155b1561067a5760405163711bec9160e11b81526001600160a01b03808316600483015287166024820152604401610518565b6106878686868686610b24565b505050505050565b6006546001600160a01b03163314806106b257506005546001600160a01b031633145b6106ce5760405162461bcd60e51b815260040161051890611908565b5f5b8151811015610704576106fc818383815181106106ef576106ef611951565b6020026020010151610b89565b6001016106d0565b5050565b606081518351146107395781518351604051635b05999160e01b815260048101929092526024820152604401610518565b5f835167ffffffffffffffff81111561075457610754611374565b60405190808252806020026020018201604052801561077d578160200160208202803683370190505b5090505f5b84518110156107cb576020808202860101516107a690602080840287010151610387565b8282815181106107b8576107b8611951565b6020908102919091010152600101610782565b509392505050565b6006546001600160a01b03163314806107f657506005546001600160a01b031633145b6108125760405162461bcd60e51b815260040161051890611908565b600161081e8285610387565b10156108635760405162461bcd60e51b8152602060048201526014602482015273496e73756666696369656e742062616c616e636560601b6044820152606401610518565b60075483108015610875575060075482105b6108ae5760405162461bcd60e51b815260206004820152600a602482015269125b9d985b1a59081a5960b21b6044820152606401610518565b6108ba81846001610be5565b6108d58183600160405180602001604052805f815250610c4b565b505050565b806009546108e89190611979565b34101561092a5760405162461bcd60e51b815260206004820152601060248201526f125b98dbdc9c9958dd08185b5bdd5b9d60821b6044820152606401610518565b600a81610937335f610387565b6109419190611990565b111561098f5760405162461bcd60e51b815260206004820152601b60248201527f596f752063616e206f6e6c79206d696e7420313020746f6b656e7300000000006044820152606401610518565b6109a9335f8360405180602001604052805f815250610c4b565b50565b6006546001600160a01b03163314806109cf57506005546001600160a01b031633145b6109eb5760405162461bcd60e51b815260040161051890611908565b600955565b610704338383610ca6565b6001600160a01b039182165f90815260016020908152604080832093909416825291909152205460ff1690565b6108d5828483610be5565b336001600160a01b0386168114801590610a545750610a5286826109fb565b155b15610a855760405163711bec9160e11b81526001600160a01b03808316600483015287166024820152604401610518565b6106878686868686610d3a565b606060028054610aa19061184f565b80601f0160208091040260200160405190810160405280929190818152602001828054610acd9061184f565b8015610b185780601f10610aef57610100808354040283529160200191610b18565b820191905f5260205f20905b815481529060010190602001808311610afb57829003601f168201915b50505050509050919050565b6001600160a01b038416610b4d57604051632bfa23e760e11b81525f6004820152602401610518565b6001600160a01b038516610b7557604051626a0d4560e21b81525f6004820152602401610518565b610b828585858585610dc6565b5050505050565b5f828152600460205260409020610ba082826119e7565b50817f6bb7ff708619ba0610cba295a58592e0451dee2622938c8755667688daf3529b610bcc846103fd565b604051610bd991906112e8565b60405180910390a25050565b6001600160a01b038316610c0d57604051626a0d4560e21b81525f6004820152602401610518565b604080516001808252602082018590528183019081526060820184905260a082019092525f60808201818152919291610b8291879185908590610dc6565b6001600160a01b038416610c7457604051632bfa23e760e11b81525f6004820152602401610518565b604080516001808252602082018690528183019081526060820185905260808201909252906106875f87848487610dc6565b6001600160a01b038216610cce5760405162ced3e160e81b81525f6004820152602401610518565b6001600160a01b038381165f81815260016020908152604080832094871680845294825291829020805460ff191686151590811790915591519182527f17307eab39ab6107e8899845ad3d59bd9653f200f220920489ca2b5937696c31910160405180910390a3505050565b6001600160a01b038416610d6357604051632bfa23e760e11b81525f6004820152602401610518565b6001600160a01b038516610d8b57604051626a0d4560e21b81525f6004820152602401610518565b60408051600180825260208201869052818301908152606082018590526080820190925290610dbd8787848487610dc6565b50505050505050565b610dd285858585610e19565b6001600160a01b03841615610b825782513390600103610e0b5760208481015190840151610e04838989858589611028565b5050610687565b610687818787878787611149565b8051825114610e485781518151604051635b05999160e01b815260048101929092526024820152604401610518565b335f5b8351811015610f4a576020818102858101820151908501909101516001600160a01b03881615610efc575f828152602081815260408083206001600160a01b038c16845290915290205481811015610ed6576040516303dee4c560e01b81526001600160a01b038a166004820152602481018290526044810183905260648101849052608401610518565b5f838152602081815260408083206001600160a01b038d16845290915290209082900390555b6001600160a01b03871615610f40575f828152602081815260408083206001600160a01b038b16845290915281208054839290610f3a908490611990565b90915550505b5050600101610e4b565b508251600103610fca5760208301515f906020840151909150856001600160a01b0316876001600160a01b0316846001600160a01b03167fc3d58168c5ae7397731d063d5bbf3d657854427343f4c083240f7aacaa2d0f628585604051610fbb929190918252602082015260400190565b60405180910390a45050610b82565b836001600160a01b0316856001600160a01b0316826001600160a01b03167f4a39dc06d4c0dbc64b70af90fd698a233a518aa5d07e595d983b8c0526c8f7fb8686604051611019929190611aa3565b60405180910390a45050505050565b6001600160a01b0384163b156106875760405163f23a6e6160e01b81526001600160a01b0385169063f23a6e619061106c9089908990889088908890600401611ad0565b6020604051808303815f875af19250505080156110a6575060408051601f3d908101601f191682019092526110a391810190611b14565b60015b61110d573d8080156110d3576040519150601f19603f3d011682016040523d82523d5f602084013e6110d8565b606091505b5080515f0361110557604051632bfa23e760e11b81526001600160a01b0386166004820152602401610518565b805181602001fd5b6001600160e01b0319811663f23a6e6160e01b14610dbd57604051632bfa23e760e11b81526001600160a01b0386166004820152602401610518565b6001600160a01b0384163b156106875760405163bc197c8160e01b81526001600160a01b0385169063bc197c819061118d9089908990889088908890600401611b2f565b6020604051808303815f875af19250505080156111c7575060408051601f3d908101601f191682019092526111c491810190611b14565b60015b6111f4573d8080156110d3576040519150601f19603f3d011682016040523d82523d5f602084013e6110d8565b6001600160e01b0319811663bc197c8160e01b14610dbd57604051632bfa23e760e11b81526001600160a01b0386166004820152602401610518565b80356001600160a01b0381168114611246575f80fd5b919050565b5f806040838503121561125c575f80fd5b61126583611230565b946020939093013593505050565b6001600160e01b0319811681146109a9575f80fd5b5f60208284031215611298575f80fd5b81356104d281611273565b5f602082840312156112b3575f80fd5b5035919050565b5f81518084528060208401602086015e5f602082860101526020601f19601f83011685010191505092915050565b602081525f6104d260208301846112ba565b803561ffff81168114611246575f80fd5b5f805f805f8060c08789031215611320575f80fd5b86359550611330602088016112fa565b945061133e604088016112fa565b935061134c606088016112fa565b925061135a608088016112fa565b915061136860a088016112fa565b90509295509295509295565b634e487b7160e01b5f52604160045260245ffd5b604051601f8201601f1916810167ffffffffffffffff811182821017156113b1576113b1611374565b604052919050565b5f67ffffffffffffffff8211156113d2576113d2611374565b5060051b60200190565b5f82601f8301126113eb575f80fd5b813560206114006113fb836113b9565b611388565b8083825260208201915060208460051b870101935086841115611421575f80fd5b602086015b8481101561143d5780358352918301918301611426565b509695505050505050565b5f67ffffffffffffffff83111561146157611461611374565b611474601f8401601f1916602001611388565b9050828152838383011115611487575f80fd5b828260208301375f602084830101529392505050565b5f82601f8301126114ac575f80fd5b6104d283833560208501611448565b5f805f805f60a086880312156114cf575f80fd5b6114d886611230565b94506114e660208701611230565b9350604086013567ffffffffffffffff80821115611502575f80fd5b61150e89838a016113dc565b94506060880135915080821115611523575f80fd5b61152f89838a016113dc565b93506080880135915080821115611544575f80fd5b506115518882890161149d565b9150509295509295909350565b5f602080838503121561156f575f80fd5b823567ffffffffffffffff80821115611586575f80fd5b818501915085601f830112611599575f80fd5b81356115a76113fb826113b9565b81815260059190911b830184019084810190888311156115c5575f80fd5b8585015b8381101561160e578035858111156115df575f80fd5b8601603f81018b136115ef575f80fd5b6116008b8983013560408401611448565b8452509186019186016115c9565b5098975050505050505050565b5f806040838503121561162c575f80fd5b823567ffffffffffffffff80821115611643575f80fd5b818501915085601f830112611656575f80fd5b813560206116666113fb836113b9565b82815260059290921b84018101918181019089841115611684575f80fd5b948201945b838610156116a95761169a86611230565b82529482019490820190611689565b965050860135925050808211156116be575f80fd5b506116cb858286016113dc565b9150509250929050565b5f815180845260208085019450602084015f5b83811015611704578151875295820195908201906001016116e8565b509495945050505050565b602081525f6104d260208301846116d5565b5f805f60608486031215611733575f80fd5b833592506020840135915061174a60408501611230565b90509250925092565b5f8060408385031215611764575f80fd5b61176d83611230565b915060208301358015158114611781575f80fd5b809150509250929050565b5f806040838503121561179d575f80fd5b6117a683611230565b91506117b460208401611230565b90509250929050565b5f805f606084860312156117cf575f80fd5b833592506117df60208501611230565b9150604084013590509250925092565b5f805f805f60a08688031215611803575f80fd5b61180c86611230565b945061181a60208701611230565b93506040860135925060608601359150608086013567ffffffffffffffff811115611843575f80fd5b6115518882890161149d565b600181811c9082168061186357607f821691505b60208210810361188157634e487b7160e01b5f52602260045260245ffd5b50919050565b5f8084546118948161184f565b600182811680156118ac57600181146118c1576118ed565b60ff19841687528215158302870194506118ed565b885f526020805f205f5b858110156118e45781548a8201529084019082016118cb565b50505082870194505b5050505083518060208601835e5f9101908152949350505050565b60208082526029908201527f4f6e6c7920436f736d696320706f776572732063616e2063616c6c207468697360408201526810333ab731ba34b7b760b91b606082015260800190565b634e487b7160e01b5f52603260045260245ffd5b634e487b7160e01b5f52601160045260245ffd5b80820281158282048414176103a8576103a8611965565b808201808211156103a8576103a8611965565b601f8211156108d557805f5260205f20601f840160051c810160208510156119c85750805b601f840160051c820191505b81811015610b82575f81556001016119d4565b815167ffffffffffffffff811115611a0157611a01611374565b611a1581611a0f845461184f565b846119a3565b602080601f831160018114611a48575f8415611a315750858301515b5f19600386901b1c1916600185901b178555610687565b5f85815260208120601f198616915b82811015611a7657888601518255948401946001909101908401611a57565b5085821015611a9357878501515f19600388901b60f8161c191681555b5050505050600190811b01905550565b604081525f611ab560408301856116d5565b8281036020840152611ac781856116d5565b95945050505050565b6001600160a01b03868116825285166020820152604081018490526060810183905260a0608082018190525f90611b09908301846112ba565b979650505050505050565b5f60208284031215611b24575f80fd5b81516104d281611273565b6001600160a01b0386811682528516602082015260a0604082018190525f90611b5a908301866116d5565b8281036060840152611b6c81866116d5565b90508281036080840152611b8081856112ba565b9897505050505050505056fea264697066735822122058b8543fef7e3c20b238046c772294a502cf9b398d263061826a68636c4d908364736f6c63430008190033",
    "sourcePath": "/home/torof/desk/portfolio/zodiak333/src/ZodiakNFT.sol",
    "compiler": {
        "name": "solc",
        "version": "0.8.25+commit.b61c2a91"
    },
    "functionHashes": {
        "balanceOf(address,uint256)": "00fdd58e",
        "balanceOfBatch(address[],uint256[])": "4e1273f4",
        "cosmicMutation(uint256,uint256,address)": "571ecec9",
        "cosmicReshape(uint256,uint16,uint16,uint16,uint16,uint16)": "17a03ee9",
        "initURI(string[])": "3845b017",
        "isApprovedForAll(address,address)": "e985e9c5",
        "safeBatchTransferFrom(address,address,uint256[],uint256[],bytes)": "2eb2c2d6",
        "safeTransferFrom(address,address,uint256,uint256,bytes)": "f242432a",
        "setApprovalForAll(address,bool)": "a22cb465",
        "setMaxCollections(uint256)": "1269555f",
        "setPrice(uint256)": "91b7f5ed",
        "summonLuck(uint256)": "5fd6bfbd",
        "supportsInterface(bytes4)": "01ffc9a7",
        "uri(uint256)": "0e89341c",
        "voidRelease(uint256,address,uint256)": "eb46eb23",
        "zodiakBonuses(uint256)": "0d0ee140"
    },
    "gasEstimates": {
        "creation": {
            "codeDepositCost": "1421200",
            "executionCost": "infinite",
            "totalCost": "infinite"
        },
        "external": {
            "balanceOf(address,uint256)": "2657",
            "balanceOfBatch(address[],uint256[])": "infinite",
            "cosmicMutation(uint256,uint256,address)": "infinite",
            "cosmicReshape(uint256,uint16,uint16,uint16,uint16,uint16)": "infinite",
            "initURI(string[])": "infinite",
            "isApprovedForAll(address,address)": "infinite",
            "safeBatchTransferFrom(address,address,uint256[],uint256[],bytes)": "infinite",
            "safeTransferFrom(address,address,uint256,uint256,bytes)": "infinite",
            "setApprovalForAll(address,bool)": "26678",
            "setMaxCollections(uint256)": "26630",
            "setPrice(uint256)": "26696",
            "summonLuck(uint256)": "infinite",
            "supportsInterface(bytes4)": "575",
            "uri(uint256)": "infinite",
            "voidRelease(uint256,address,uint256)": "infinite",
            "zodiakBonuses(uint256)": "2715"
        }
    }
}